:020000040800F2
:1000000068660024AD02000861CE0008F9C000084F
:1000100059CE00083110000829E700080000000050
:10002000000000000000000000000000C9D200082D
:10003000192B000800000000D9CE000829D30008C1
:10004000CB020008CB020008CB020008CB0200085C
:10005000CB020008CB020008212B0008CB020008CD
:10006000CB020008CB020008CB0200087920000870
:1000700089200008CB020008CB020008CB02000850
:10008000CB020008CB020008CB020008CB0200081C
:10009000CB020008CB020008CB020008CB0200080C
:1000A000CB020008CB020008CB020008CB020008FC
:1000B000CB020008CB020008A9D50008CB0200083B
:1000C000CB020008CB020008CB020008CB020008DC
:1000D000CB020008CB020008CB020008CB020008CC
:1000E000CB020008CB02000800000000CB02000891
:1000F000CB020008CB020008CB020008CB020008AC
:10010000CB020008CB020008CB020008CB0200089B
:10011000CB020008CB020008CB020008CB0200088B
:10012000CB020008CB020008CB020008CB0200087B
:10013000CB020008CB020008CB020008CB0200086B
:1001400000000000000000000000000000000000AF
:10015000CB020008CB020008CB020008CB0200084B
:10016000CB020008CB020008CB020008CB0200083B
:10017000CB020008CB020008CB0200080000000000
:10018000CB020008CB020008CB020008CB0200081B
:10019000CB020008CB020008CB020008CB0200080B
:1001A000CB020008CB020008CB020008CB020008FB
:1001B000CB020008CB020008CB020008CB020008EB
:1001C000CB020008CB020008CB020008CB020008DB
:1001D000CB020008CB020008CB020008CB020008CB
:1001E000CB020008CB020008CB020008CB020008BB
:1001F000CB020008CB020008CB020008CB020008AB
:10020000CB020008CB020008CB020008CB0200089A
:10021000CB020008CB020008CB020008CB0200088A
:10022000CB020008CB020008CB020008000000004F
:10023000CB020008CB02000800000000CB0200083F
:10024000CB020008CB020008CB020008CB0200085A
:10025000CB020008CB020008CB020008CB0200084A
:10026000CB020008CB020008CB020008CB0200083A
:10027000CB020008CB020008CB02000800000000FF
:10028000CB020008CB020008CB02000800000000EF
:1002900000000000CB020008DFF80CD000F054FA98
:1002A00000480047D1E900086866002407488047F5
:1002B0000748804707480047FEE7FEE7FEE7FEE7FE
:1002C000FEE7FEE7FEE7FEE7FEE7FEE7392B000864
:1002D00019D40008990200082DE9F05F05460020B6
:1002E00092469B4688460646814640241BE02846A7
:1002F00041464746224600F05EF853465A46C01A29
:10030000914110D311461846224600F045F82D1AA7
:1003100067EB01084F4622460120002100F03CF81F
:1003200017EB00094E41201EA4F10104DFDC484612
:1003300031462A464346BDE8F09FD2B201E000F8BC
:10034000012B491EFBD270470022F6E710B5134679
:100350000A4604461946FFF7F0FF204610BD421C2E
:1003600010F8011B0029FBD1801A704730B50B46ED
:10037000014600202022012409E021FA02F59D42D5
:1003800005D303FA02F5491B04FA02F52844151EA9
:10039000A2F10102F1DC30BD202A04DB203A00FA90
:1003A00002F1002070479140C2F1200320FA03F3CC
:1003B000194390407047202A04DB203A21FA02F0CA
:1003C0000021704721FA02F3D040C2F1200291408F
:1003D0000843194670472DE9FE4F804681EA030025
:1003E000C00F0C46009021F0004123F00045B8EB0F
:1003F0000200A94105D24046214690461C460B46C4
:10040000024623F00040104347D0270DC7F30A00EF
:10041000C3F30A510290401A019040286BDAC3F3EB
:10042000130040F4801B0098924620B10023D2EBC9
:10043000030A63EB0B0B01985946C0F1400250468A
:10044000FFF7AAFF06460D4650465946019A00F0AE
:100450008DF910EB08006141002487EA115284EA0B
:10046000E7731A4340D0009A62B3019A012A4FEA17
:10047000075215DC001B61EB02014FF0004202EA5B
:100480000752CDE90042001C41F5801132462B464F
:1004900000F08DF903B0BDE8F08F40462146F9E742
:1004A000001B61EB0201001C41F5801300185B4149
:1004B0002018A2F5001747EB030140EAD570B619E2
:1004C0006D4111E06D084FEA360645EAC0754FEA06
:1004D0000752001B61EB0201001C41F58011490825
:1004E0004FEA30000019514132462B4603B0BDE8B7
:1004F000F04F00F04DB90098012240000023D0EBEE
:10050000020263EBE073009821464FEAE074B8EB17
:10051000000061EB0401E9E783F000435BE781F051
:10052000004158E72DE9FE4F81EA030404F000443E
:1005300021F0004100944FF0000B23F0004350EAFB
:1005400001045ED052EA03045BD0C3F30A54C1F342
:100550000A552C44A4F2F3340194A0FB0254C1F3D5
:10056000130141F48011C3F3130343F4801301FB1F
:10057000024400FB034E840A970A44EA815447EA86
:100580008357A4FB076802958D0A05FB07854FEA90
:10059000932C04FB0C542705029D4FEA065847EAAA
:1005A0001637B5EB08056EEB070C870E920E47EA7F
:1005B000811742EA8312A7FB0201B6EB0B0164EB41
:1005C00000042B0D43EA0C335E1844EB1C50DA4652
:1005D0005146E7FB0201C5F313044FEA0B3343EA2C
:1005E00014534FEA0432019C43EA0603A4F10C04BD
:1005F0000294009CCDE900B400F0D9F803B0BDE846
:10060000F08F00200146F9E72DE9F04D81EA03045F
:1006100004F0004B21F0004514464FF0000A23F08F
:10062000004150EA050220D054EA01021DD0C5F372
:100630000A570246C5F31303C1F31300C1F30A5668
:1006400040F4801543F48013A7EB0608101BD64630
:1006500008F2FD3873EB050002D308F1010801E050
:1006600092185B41B8F1000F03DA00200146BDE8A3
:10067000F08D00204FF48011064684460EE0171BD3
:1006800073EB050705D3121B63EB050306434CEA26
:10069000010C49084FEA300092185B4150EA01070B
:1006A000EDD152EA030012D082EA040083EA050188
:1006B000084305D0101BAB4106D20122002306E0FF
:1006C00000224FF0004302E06FF0010253101AEBDA
:1006D00006004CEB085110EB0A0041EB0B01BDE8A2
:1006E000F04D00F055B8C1F30A52C1F3130140F2C6
:1006F000FF3341F480119A4202DA0020014670472C
:1007000040F233439A42A2F2334202DC5242FFF7F4
:1007100052BEFFF741BE000030B5041E71F1000467
:1007200004DB4FF00044404264EB0101141E73F1FE
:10073000000405DB1C464FF00043524263EB040308
:10074000994208BF904230BD064C074D06E0E06874
:1007500040F0010394E8070098471034AC42F6D308
:10076000FFF79EFDD4FB0008F4FB0008202A06DBFF
:10077000CB17203A41FA02F043EAE07306E041FA6F
:1007800002F3D040C2F1200291400843194670475D
:1007900010B5141E73F1000408DA401C41F1000189
:1007A00092185B411A4301D120F0010010BD2DE9E0
:1007B000F04D92469B4611B1B1FA81F202E0B0FAD7
:1007C00080F220329046FFF7E7FD04460F4640EAEC
:1007D0000A0041EA0B0153465A46084313D011461A
:1007E00053EA010019D0C8F140025046FFF7E3FD7B
:1007F00005460E46504659464246FFF7CDFD084392
:1008000005D0012004E020463946BDE8F08D0020E7
:10081000054346EAE0762C4337430A986305E40A29
:10082000A0EB08000022FD0A44EA47540A3002D532
:1008300000200146E9E7010510196941DDE9084595
:1008400000196941BDE8F04DA2E70000000000007A
:1008500080B584B003900398006842F20001C4F2AE
:100860000201884209D0FFE70398006842F20011B4
:10087000C4F20201884209D1FFE742F20830C4F213
:100880000200006810F4403F09D129E046F2083028
:10089000C5F60200006810F4403F21D0FFE709F0E0
:1008A000D3FB0290039840680190B0F5803F0AD0D6
:1008B000FFE70198B0F5003F05D0FFE70198B0F5DC
:1008C000403F07D00AE00398C1880298B0FBF1F0DE
:1008D000029004E002988008029000E0FFE75FE0E9
:1008E0004FF40020002107F0EBFA029003984068D3
:1008F0000090B0F5802F32D0FFE70098B0F5002FC0
:100900002DD0FFE70098B0F5402F28D0FFE70098E2
:10091000B0F5801F23D0FFE70098B0F5A01F1ED0D0
:10092000FFE70098B0F5C01F19D0FFE70098B0F5B9
:10093000E01F1FD0FFE70098B0F5001F1ED0FFE7B3
:100940000098B0F5101F1DD0FFE70098B0F5201FEC
:100950001CD0FFE70098B0F5301F1BD01EE00398B5
:1009600041686FF0010000EA51410298B0FBF1F0DC
:10097000029014E002980009029010E002984009E9
:1009800002900CE002988009029008E00298C009E9
:10099000029004E00298000A029000E0FFE7FFE7FF
:1009A00006F0CEFC41F20301884217D8FFE7029817
:1009B00042F60151C0F23111884207D3FFE7039894
:1009C0000168886840F48070886006E003980168D8
:1009D000886820F480708860FFE743E00298400850
:1009E0000290029845F61061C0F25F01884209D872
:1009F000FFE703980068806820F440700399096855
:100A000088602EE002984BF62041C0F2BE01884279
:100A10000AD8FFE7039800688068012161F3092084
:100A20000399096888601BE0029847F64001C0F20C
:100A30007D1188420AD8FFE7039800688068022188
:100A400061F3092003990968886008E00398006849
:100A5000806840F44070039909688860FFE7FFE709
:100A6000FFE7FFE704B080BD80B58AB0089007912A
:100A70000020059007980490089800680BF0CCFBC4
:100A80000290089800680BF087FB0190029828B943
:100A9000FFE70198002800F0A880FFE708980068A9
:100AA000C0688001002836D5FFE70898407D0128FE
:100AB00031D1FFE70898007D01282CD1FFE7012004
:100AC0000490FFE708980068006800F040010020EB
:100AD000B0EB911F1AD1FFE705984DF60041C0F227
:100AE0000C0188420ED3FFE70899486D40F01000D2
:100AF00048650899886D40F00100886501208DF8EF
:100B0000270076E0059801300590DBE7089801683A
:100B100040200860FFE70498022813D0FFE70898F8
:100B200000680BF079FB60B1FFE7089800680BF0F4
:100B300053FB28B9FFE7089800680BF0C9FBFFE7F3
:100B4000FFE7FFE70498012813D0FFE70898006843
:100B50000BF022FB60B1FFE7089800680BF03CFB4C
:100B600028B9FFE7089800680BF01EFBFFE7FFE7D6
:100B7000FFE704980090022807D0FFE700980328B9
:100B800006D1FFE70C20039005E00820039002E067
:100B900004200390FFE706F0DBFB0690FFE70898D0
:100BA00000688068039908421ED0FFE706F0D0FB7A
:100BB0000699401A062816D3FFE70898006880684F
:100BC000039908420ED0FFE70899486D40F01000E5
:100BD00048650899886D40F00100886501208DF80E
:100BE000270006E0FFE7DAE7FFE700208DF827009F
:100BF000FFE79DF827000AB080BD0000000000005C
:100C000080B582B001900198806B00900098406D93
:100C100010F0500F4AD1FFE70099486D40F4007082
:100C200048650098006800680007002821D5FFE7A4
:100C3000009800680BF000FBD0B1FFE70098006857
:100C4000C0688004002812D4FFE70099486D20F4A2
:100C5000807048650098406DC004002806D4FFE706
:100C60000099486D40F001004865FFE7FFE7FFE7A6
:100C700018E000980068C068800790B9FFE7009905
:100C8000486D20F4807048650098406DC0040028CD
:100C900006D4FFE70099486D40F001004865FFE782
:100CA000FFE7FFE7009802F08BFE10E00098406D30
:100CB000C006002804D5FFE7009802F0B5FE05E065
:100CC0000098C06CC16C01988847FFE7FFE702B04D
:100CD00080BD00000000000080B582B00190019846
:100CE000806B00900099486D40F040004865009985
:100CF000886D40F004008865009802F095FE02B00F
:100D000080BD00000000000080B582B00190019815
:100D1000806B0090009802F083FE02B080BD00005E
:100D200080B584B00290029800680BF055FA0090EC
:100D3000029800680BF058FA00284BD0FFE70098A3
:100D4000002847D1FFE702980068806800F00D0096
:100D5000012809D1FFE7029800680BF0D1F9029849
:100D60000168032008600DE00299486D40F0100012
:100D700048650299886D40F00100886501208DF872
:100D80000F002BE006F0E4FA0190FFE702980068FC
:100D90008068C007E8B1FFE706F0DAFA0199401A67
:100DA000032815D3FFE7029800688068C00770B178
:100DB000FFE70299486D40F0100048650299886D80
:100DC00040F00100886501208DF80F0006E0FFE784
:100DD000DCE7FFE700208DF80F00FFE79DF80F002C
:100DE00004B080BD0000000080B586B00490049877
:100DF00000680BF0F9F9002840F09280FFE70498B2
:100E0000006880683F21C8F2000108420ED0FFE769
:100E10000499486D40F0100048650499886D40F0D1
:100E20000100886501208DF817007DE004980068B6
:100E30000BF082F906F08CFA039004980168012007
:100E400042F20002C4F20202914201900CD0FFE78C
:100E5000049800684DF60071CBF6FD710844B0FAB5
:100E600080F040090190FFE70198C10746F2003089
:100E7000C5F6020000291CBF42F20030C4F2020095
:100E80000BF082F902900498006842F20011C4F25B
:100E90000201884206D1FFE742F20000C4F20200DC
:100EA000009003E0049800680090FFE70098049920
:100EB0000968884203D0FFE7029880BBFFE7FFE79D
:100EC000049800680068C00740BBFFE7049800680A
:100ED0000BF08AF928B9FFE7049800680BF02CF9A9
:100EE000FFE706F035FA0399401A032815D3FFE708
:100EF000049800680068C00770B9FFE70499486D5E
:100F000040F0100048650499886D40F00100886544
:100F100001208DF8170007E0FFE7D1E7FFE7FFE7C3
:100F200000208DF81700FFE79DF8170006B080BD80
:100F300080B582B0019001980090FFF710FA0099F7
:100F400082B244F65C20C2F2004064230BF028F821
:100F500002B080BD0000000080B5ADF5016DCDF898
:100F60000C0800200190ADF80A00BDF80A1003A893
:100F700008444FF6CC31C0F600010EF00FF90246DE
:100F80000198BDF80A101144ADF80A10ADF8080038
:100F9000FFE7BDF80800632832DCFFE7BDF8080072
:100FA000012811DBFFE7BDF80A1003A808444FF63B
:100FB000C831C0F600010EF0F1F80146BDF80A0094
:100FC0000844ADF80A00FFE7BDF80A1003A808447A
:100FD000DDF80C18BDF808208A5C4FF6CF31C0F65A
:100FE00000010EF0DBF80146BDF80A000844ADF838
:100FF0000A00FFE7BDF808000130ADF80800C8E7B7
:10100000BDF80A1003A8009008444FF6CA31C0F694
:1010100000010EF0C3F802460098BDF80A10114412
:10102000ADF80A10FFF784FF0DF5016D80BD0000DB
:10103000FFE7FEE700000000D0B502AFADF5007D90
:101040006E4606F12802726147F80C0C27F80E1C58
:1010500037F80E0C132801DCFFE703E2002047F805
:10106000140C27F8160CFFE737F8160C37F80E1C8F
:10107000884215DAFFE757F80C0C37F8161C00EB1E
:10108000810090ED001A17ED050A30EE010A07ED18
:10109000050AFFE737F8160C013027F8160CE3E7CE
:1010A00017ED050A37F80E0C01EE100AB8EEC11A5A
:1010B00080EE010A07ED070A0020A6F85A00012079
:1010C000A6F85800FFE7B6F8580037F80E1C88421B
:1010D00077DAFFE757F80C0CB6F8581000EB8100F0
:1010E00010ED010A17ED071A0020B4EE410AF1EEE7
:1010F00010FA306113DCFFE757F80C0CB6F8581003
:1011000000EB810090ED000A17ED071A0020B4EE05
:10111000410AF1EE10FAC8BF01203061FFE73069E3
:1011200000F0010086F8570057F80C0CB6F858107C
:1011300000EB810010ED010A17ED071A0020B4EE54
:10114000410AF1EE10FAF06013DBFFE757F80C0CE0
:10115000B6F8581000EB810090ED000A17ED071A61
:101160000020B4EE410AF1EE10FAB8BF0120F060A1
:10117000FFE7F06800F0010086F8560096F8570087
:10118000C00728B9FFE796F85600C00790B1FFE7FF
:10119000B6F85A00C7280CDCFFE7B6F85800B6F8D6
:1011A0005A20511CA6F85A1006F15C0121F81200D1
:1011B000FFE7FFE7FFE7B6F858000130A6F8580050
:1011C00081E7B6F85A0000285AD1FFE7716957F84D
:1011D0000C0C0068886257F80C0C0068486201200B
:1011E000A6F84A00FFE7B6F84A0037F80E1C884216
:1011F00039DAFFE757F80C0CB6F84A1000EB81001B
:1012000090ED000A96ED141AB4EE410AF1EE10FAD0
:1012100009DDFFE7716957F80C0CB6F84A2050F861
:1012200022008862FFE757F80C0CB6F84A1000EB72
:10123000810090ED000A96ED131AB4EE410AF1EE2A
:1012400010FA09DAFFE7716957F80C0CB6F84A2072
:1012500050F822004862FFE7FFE7B6F84A00013085
:10126000A6F84A00BFE796ED140A96ED131A30EE81
:10127000410A44F2D460C2F2004080ED000AF1E07D
:10128000716937F80E0C6A46CA61C21D22F0070365
:101290006A46D21A9546B26088610020F087FFE75F
:1012A000F08F37F80E1C884209DAFFE7B168F28F39
:1012B00001208854FFE7F08F0130F087F0E700202D
:1012C000B087FFE7B08FB6F85A1088423DDAFFE7E3
:1012D0007069B28F06F15C0131F81220053A0261A3
:1012E000B28F31F812100531C1600069B0F1FF3FD3
:1012F00004DCFFE7716900200861FFE77069C068DE
:1013000037F80E1C884206DBFFE7716937F80E0CD0
:101310000138C860FFE7716908698860FFE7716993
:101320008868C96888420BDCFFE7B1687069826829
:1013300000208854FFE77169886801308860EEE713
:10134000FFE7B08F0130B087BCE7716900204860CB
:101350000860F084B0847084FFE7708C37F80E1C4E
:1013600088423DDAFFE7B068718C405CC00708B97D
:10137000FFE731E057F80C0C718C00EB810090ED29
:10138000000A17ED071AB4EE410AF1EE10FA11DD6A
:10139000FFE757F80C0C718C00EB810090ED001A00
:1013A00096ED0B0A30EE010A86ED0B0AF08C013047
:1013B000F08410E057F80C0C718C00EB810090ED7C
:1013C000001A96ED0A0A30EE010A86ED0A0AB08C80
:1013D0000130B084FFE7FFE7708C01307084BCE718
:1013E000F08C01280CDBFFE796ED0B0AF08C01EE88
:1013F000100AB8EEC11A80EE010A86ED010A04E077
:1014000017ED070A86ED010AFFE796ED010A86ED62
:10141000070AB08C01280CDBFFE796ED0A0AB08CB6
:1014200001EE100AB8EEC11A80EE010A86ED000A3C
:1014300004E017ED070A86ED000AFFE7706996EDF4
:10144000000A86ED060A96ED070A96ED061A30EEBA
:10145000410A44F2D461C2F2004181ED000AC06940
:101460008546FFE7A7F10804A546D0BD00000000AF
:10147000F7B07690ADF8D6110020ADF87201FFE715
:10148000BDF872010B2817DCFFE77698BDF87221D2
:1014900050F8220069A941F822007698BDF872211F
:1014A00050F822005DA941F82200FFE7BDF8720163
:1014B0000130ADF87201E3E700205B90FFE75B9835
:1014C0000A2833DCFFE75B9801305A90FFE75A980F
:1014D0000B2826DCFFE75B9969A800EB810191ED01
:1014E000000A5A9900EB810090ED001AB4EE410A0F
:1014F000F1EE10FA10DAFFE75B9869A951F82000C5
:1015000059905A9851F820005B9A41F82200599856
:101510005A9A41F82200FFE7FFE75A9801305A90A3
:10152000D5E7FFE75B9801305B90C8E70020589053
:10153000FFE758980A2833DCFFE7589801305790A6
:10154000FFE757980B2826DCFFE758995DA800EBCA
:10155000810191ED000A579900EB810090ED001A8E
:10156000B4EE410AF1EE10FA10DDFFE758985DA9DC
:1015700051F820005690579851F82000589A41F899
:1015800022005698579A41F82200FFE7FFE7579844
:1015900001305790D5E7FFE7589801305890C8E7D9
:1015A0000C20ADF85601FFE7BDF85601BDF8D61185
:1015B000884280F29280FFE77698BDF8561150F885
:1015C000210054909DED540A9DED741AB4EE410A29
:1015D000F1EE10FA38DDFFE7549874900B20539029
:1015E000FFE7539900200129039011DBFFE753998E
:1015F00069A800EB810090ED000A10ED011A0020AF
:10160000B4EE410AF1EE10FAC8BF01200390FFE7E3
:101610000398C007B8B1FFE7539869A951F82000B3
:101620005290539A01EB820050F8040C41F82200CA
:101630005298539A01EB820141F8040CFFE753984A
:1016400001385390CDE7FFE79DED540A9DED681AF0
:10165000B4EE410AF1EE10FA38DAFFE754986890D8
:101660000B205190FFE7519900200129029011DBD6
:10167000FFE751995DA800EB810090ED000A10EDA5
:10168000011A0020B4EE410AF1EE10FAB8BF0120B1
:101690000290FFE70298C007B8B1FFE751985DA933
:1016A00051F820005090519A01EB820050F8040C40
:1016B00041F822005098519A01EB820141F8040C44
:1016C000FFE7519801385190CDE7FFE7FFE7BDF8FC
:1016D00056010130ADF8560166E700204F904E905C
:1016E000FFE74E980B2811DCFFE74E9969A800EB45
:1016F000810090ED001A9DED4F0A30EE010A8DED4C
:101700004F0AFFE74E9801304E90EAE79DED4F0AF1
:10171000B2EE081A80EE010A8DED4D0A00203490D9
:10172000FFE734980B281ADCFFE7349869A901EB2E
:10173000800191ED000A9DED4D1A30EE410AB0EEA8
:10174000C00A35A901EBC00080ED000A349801EB16
:10175000C0014860FFE7349801303490E1E7002091
:101760003390FFE733980A2844DCFFE733980130D1
:101770003290FFE732980B2837DCFFE7339935A822
:1017800000EBC10191ED000A329900EBC10090ED30
:10179000001AB4EE410AF1EE10FA21DAFFE73399AC
:1017A00035AB019303EBC10053F831103091406821
:1017B0003190DDF8CCC003EBCC01329A03EBC200D0
:1017C00053F8322043F83C2040684860DDF8C8C038
:1017D00003EBCC01309A319843F83C204860FFE796
:1017E000FFE7329801303290C4E7FFE733980130C9
:1017F0003390B7E700202F902E902D90FFE72D9883
:101800000B2831DCFFE700202C902B90FFE72B9872
:10181000022811DCFFE72D982B9A35A901EBC201B4
:101820004968884203D1FFE701202C9004E0FFE7DC
:101830002B9801302B90EAE72C9880B9FFE72D997F
:1018400069A800EB810090ED001A9DED2F0A30EEA3
:10185000010A8DED2F0A2E9801302E90FFE7FFE749
:101860002D9801302D90CAE79DED2F0A9DED2E1A7F
:10187000B8EEC11A80EE010A8DED2A0A00202990E7
:101880002890FFE728980B2811DCFFE728995DA82E
:1018900000EB810090ED001A9DED290A30EE010A5F
:1018A0008DED290AFFE7289801302890EAE79DEDA1
:1018B000290AB2EE081A80EE010A8DED270A0020EF
:1018C0000E90FFE70E980B281ADCFFE70E985DA933
:1018D00001EB800191ED000A9DED271A30EE410ADF
:1018E000B0EEC00A0FA901EBC00080ED000A0E980F
:1018F00001EBC0014860FFE70E9801300E90E1E770
:1019000000200D90FFE70D980A2844DCFFE70D98B2
:1019100001300C90FFE70C980B2837DCFFE70D999E
:101920000FA800EBC10191ED000A0C9900EBC1007A
:1019300090ED001AB4EE410AF1EE10FA21DAFFE759
:101940000D990FAB009303EBC10053F831100A91CE
:1019500040680B90DDF834C003EBCC010C9A03EB2C
:10196000C20053F8322043F83C2040684860DDF85C
:1019700030C003EBCC010A9A0B9843F83C20486036
:10198000FFE7FFE70C9801300C90C4E7FFE70D98E4
:1019900001300D90B7E70020099008900790FFE70D
:1019A00007980B2831DCFFE7002006900590FFE741
:1019B0000598022811DCFFE70798059A0FA901EBAB
:1019C000C2014968884203D1FFE70120069004E084
:1019D000FFE7059801300590EAE7069880B9FFE730
:1019E00007995DA800EB810090ED001A9DED090AB2
:1019F00030EE010A8DED090A089801300890FFE7E2
:101A0000FFE7079801300790CAE79DED090A9DEDB1
:101A1000081AB8EEC11A80EE010A8DED040A9DED98
:101A20002A0A9DED041A30EE410A44F2D460C2F253
:101A3000004080ED000A77B0704700000000000011
:101A4000F7B07690ADF8D611BDF8D601172801DCB5
:101A5000FFE7DFE20020ADF87201FFE7BDF8720199
:101A60000B2817DCFFE77698BDF8722150F82200AA
:101A700069A941F822007698BDF8722150F8220039
:101A80005DA941F82200FFE7BDF872010130ADF811
:101A90007201E3E700205B90FFE75B980A2833DCE4
:101AA000FFE75B9801305A90FFE75A980B2826DC35
:101AB000FFE75B9969A800EB810191ED000A5A9953
:101AC00000EB810090ED001AB4EE410AF1EE10FA3D
:101AD00010DAFFE75B9869A951F8200059905A98ED
:101AE00051F820005B9A41F8220059985A9A41F81F
:101AF0002200FFE7FFE75A9801305A90D5E7FFE749
:101B00005B9801305B90C8E700205890FFE7589839
:101B10000A2833DCFFE7589801305790FFE75798C1
:101B20000B2826DCFFE758995DA800EB810191EDB9
:101B3000000A579900EB810090ED001AB4EE410ABB
:101B4000F1EE10FA10DDFFE758985DA951F820007A
:101B50005690579851F82000589A41F8220056980C
:101B6000579A41F82200FFE7FFE757980130579056
:101B7000D5E7FFE7589801305890C8E70C20ADF83A
:101B80005601FFE7BDF85601BDF8D611884280F234
:101B90009280FFE77698BDF8561150F821005490D6
:101BA0009DED540A9DED741AB4EE410AF1EE10FA5F
:101BB00038DDFFE7549874900B205390FFE753995A
:101BC00000200129039011DBFFE7539969A800EB7E
:101BD000810090ED000A10ED011A0020B4EE410AD8
:101BE000F1EE10FAC8BF01200390FFE70398C00789
:101BF000B8B1FFE7539869A951F820005290539A61
:101C000001EB820050F8040C41F822005298539ADC
:101C100001EB820141F8040CFFE75398013853901F
:101C2000CDE7FFE79DED540A9DED681AB4EE410A39
:101C3000F1EE10FA38DAFFE7549868900B205190D3
:101C4000FFE7519900200129029011DBFFE751992C
:101C50005DA800EB810090ED000A10ED011A002054
:101C6000B4EE410AF1EE10FAB8BF01200290FFE78E
:101C70000298C007B8B1FFE751985DA951F820005C
:101C80005090519A01EB820050F8040C41F8220068
:101C90005098519A01EB820141F8040CFFE75198EA
:101CA00001385190CDE7FFE7FFE7BDF8560101305D
:101CB000ADF8560166E700204F904E90FFE74E9832
:101CC0000B2811DCFFE74E9969A800EB810090ED2D
:101CD000001A9DED4F0A30EE010A8DED4F0AFFE725
:101CE0004E9801304E90EAE79DED4F0AB2EE081A89
:101CF00080EE010A8DED4D0A00203490FFE7349804
:101D00000B281ADCFFE7349869A901EB800191EDFB
:101D1000000A9DED4D1A30EE410AB0EEC00A35A919
:101D200001EBC00080ED000A349801EBC00148606F
:101D3000FFE7349801303490E1E700203390FFE76B
:101D400033980A2844DCFFE7339801303290FFE7EC
:101D500032980B2837DCFFE7339935A800EBC10137
:101D600091ED000A329900EBC10090ED001AB4EE3B
:101D7000410AF1EE10FA21DAFFE7339935AB01930E
:101D800003EBC10053F83110309140683190DDF819
:101D9000CCC003EBCC01329A03EBC20053F83220E3
:101DA00043F83C2040684860DDF8C8C003EBCC0134
:101DB000309A319843F83C204860FFE7FFE73298BB
:101DC00001303290C4E7FFE7339801303390B7E732
:101DD00000202F902E902D90FFE72D980B2831DCBE
:101DE000FFE700202C902B90FFE72B98032811DCB5
:101DF000FFE72D982B9A35A901EBC201496888426B
:101E000003D1FFE701202C9004E0FFE72B9801307D
:101E10002B90EAE72C9880B9FFE72D9969A800EB91
:101E2000810090ED001A9DED2F0A30EE010A8DED34
:101E30002F0A2E9801302E90FFE7FFE72D980130F2
:101E40002D90CAE79DED2F0A9DED2E1AB8EEC11A0E
:101E500080EE010A8DED2A0A002029902890FFE7E4
:101E600028980B2811DCFFE728995DA800EB81007A
:101E700090ED001A9DED290A30EE010A8DED290A38
:101E8000FFE7289801302890EAE79DED290AB2EE95
:101E9000081A80EE010A8DED270A00200E90FFE758
:101EA0000E980B281ADCFFE70E985DA901EB800164
:101EB00091ED000A9DED271A30EE410AB0EEC00AFE
:101EC0000FA901EBC00080ED000A0E9801EBC001E4
:101ED0004860FFE70E9801300E90E1E700200D907A
:101EE000FFE70D980A2844DCFFE70D9801300C90BD
:101EF000FFE70C980B2837DCFFE70D990FA800EBE4
:101F0000C10191ED000A0C9900EBC10090ED001A9F
:101F1000B4EE410AF1EE10FA21DAFFE70D990FABAA
:101F2000009303EBC10053F831100A9140680B9005
:101F3000DDF834C003EBCC010C9A03EBC20053F87C
:101F4000322043F83C2040684860DDF830C003EBA5
:101F5000CC010A9A0B9843F83C204860FFE7FFE762
:101F60000C9801300C90C4E7FFE70D9801300D90FC
:101F7000B7E70020099008900790FFE707980B2823
:101F800031DCFFE7002006900590FFE70598032865
:101F900011DCFFE70798059A0FA901EBC201496818
:101FA000884203D1FFE70120069004E0FFE705988F
:101FB00001300590EAE7069880B9FFE707995DA828
:101FC00000EB810090ED001A9DED090A30EE010A48
:101FD0008DED090A089801300890FFE7FFE70798A0
:101FE00001300790CAE79DED090A9DED081AB8EE89
:101FF000C11A80EE010A8DED040A9DED2A0A9DEDBD
:10200000041A30EE410A44F2D460C2F2004080ED7E
:10201000000AFFE777B0704780B584B0ADF80E00D6
:10202000ADF80C1044F6E400C2F20040029009F052
:102030003FFA0299BDF80E0009688862FFE7BDF813
:102040000C0044F6E401C2F200410A68D062BDF817
:102050000C00C860FFE744F6E400C2F200400190C3
:10206000026800215162012109F05EFB019809F02C
:102070001FF904B080BD000080B544F2A870C2F220
:10208000004002F0B9FD80BD80B544F62000C2F2E8
:10209000004002F0B1FD80BD83B00290029801685B
:1020A00001201022C4F202029142009000F0A380AD
:1020B000FFE70298016801202822C4F2020291423F
:1020C000009000F09880FFE702980168012040220C
:1020D000C4F202029142009000F08D80FFE7029866
:1020E000016801205822C4F202029142009000F0DF
:1020F0008280FFE70298016801207022C4F2020288
:102100009142009077D0FFE7029801680120882271
:10211000C4F20202914200906DD0FFE7029801687C
:102120000120A022C4F202029142009063D0FFE796
:10213000029801680120B822C4F202029142009084
:1021400059D0FFE702980168012040F21042C4F222
:102150000202914200904ED0FFE7029801680120F0
:1021600040F22842C4F202029142009043D0FFE7BD
:1021700002980168012040F24042C4F202029142FA
:10218000009038D0FFE702980168012040F25842E1
:10219000C4F20202914200902DD0FFE7029801683C
:1021A000012040F27042C4F202029142009022D01B
:1021B000FFE702980168012040F28842C4F202025F
:1021C0009142009017D0FFE702980168012040F289
:1021D000A042C4F20202914200900CD0FFE70298A4
:1021E00000684FF64831CBF6FD710844B0FA80F034
:1021F00040090090FFE70098C00740B3FFE702984E
:10220000007810384AF6AB21CAF6AA21A0FB0110CB
:1022100000090190019800F007014FF6B020C0F6C8
:102220000000405C0299C8650198042807D3FFE7C5
:1022300002990868042262F30900886506E00299A1
:10224000086840F2FF3290438865FFE705E0029995
:10225000086820F0FF008865FFE70298806D03B0F2
:10226000704700000000000084B0039003980068ED
:10227000019003980168012045F20842C5F6020268
:10228000914200904ED0FFE703980168012045F28B
:102290001C42C5F602029142009043D0FFE703982A
:1022A0000168012045F23042C5F6020291420090D9
:1022B00038D0FFE703980168012045F24442C5F693
:1022C0000202914200902DD0FFE70398016801209F
:1022D00045F25842C5F602029142009022D0FFE733
:1022E00003980168012045F26C42C5F60202914252
:1022F000009017D0FFE703980168012045F2804263
:10230000C5F60202914200900CD0FFE703980068E6
:102310004AF66C31CAF2FD710844B0FA80F0400907
:102320000090FFE70098C00710B3FFE7039800781C
:1023300008384CF6CD41CCF6CC41A0FB0110000989
:102340000290029945F60000C5F6020000EB8100FC
:1023500003990866039945F68000C5F602004866B1
:10236000029800F01F01012088400399886635E03B
:102370000398007810384AF6AB21CAF6AA21A0FBD0
:10238000011000090290019840F2B841C4F2020124
:1023900088420CD8FFE7019840F21041C4F20201D4
:1023A000884204D3FFE7029808300290FFE70299C1
:1023B00040F60000C4F2020000EB810003990866B9
:1023C000039940F68000C4F202004866029800F0CB
:1023D0001F010120884003998866FFE704B0704719
:1023E00083B002900298007901900198002800F0D3
:1023F0008A80FFE70198082800F28580FFE70298AD
:102400000168012045F20842C5F60202914200909F
:102410004ED0FFE702980168012045F21C42C5F644
:1024200002029142009043D0FFE702980168012028
:1024300045F23042C5F602029142009038D0FFE7E3
:1024400002980168012045F24442C5F60202914219
:1024500000902DD0FFE702980168012045F2584214
:10246000C5F602029142009022D0FFE7029801686F
:10247000012045F26C42C5F602029142009017D04D
:10248000FFE702980168012045F28042C5F602028A
:10249000914200900CD0FFE7029800684AF66C3138
:1024A000CAF2FD710844B0FA80F040090090FFE7DD
:1024B0000098C00780B1FFE7019945F6FC00C5F61A
:1024C000020000EB81000299C866029945F64010AF
:1024D000C5F6020008670FE0019940F6FC00C4F25F
:1024E000020000EB81000299C866029940F6401094
:1024F000C4F202000867FFE70198411E01208840EE
:1025000002994867FFE703B0704700000000000031
:1025100085B0049000208DF80F000498806918BBE6
:10252000FFE70498806A029003281BD80299DFE82D
:1025300001F0020D0218049890F82F00C00720B196
:10254000FFE701208DF80F00FFE70CE00498C06A58
:10255000B0F1C07F04D1FFE701208DF80F00FFE745
:1025600001E000E0FFE747E004988069B0F5005F14
:1025700026D1FFE70498806A019003281ED80199AC
:10258000DFE801F00206021101208DF80F0016E0CD
:10259000049890F82F00C00720B1FFE701208DF8C4
:1025A0000F00FFE70BE00498C06AB0F1C07F04D1D0
:1025B000FFE701208DF80F00FFE700E0FFE71AE0DA
:1025C0000498806A0090032804D3FFE7009803284A
:1025D00004D00EE001208DF80F000BE0049890F875
:1025E0002F00C00720B1FFE701208DF80F00FFE7A3
:1025F00000E0FFE7FFE7FFE79DF80F0005B0704739
:1026000089B008900791069205930898806D049010
:102610000898806D03900898016801201022C4F288
:1026200002029142029000F00381FFE708980168DE
:1026300001202822C4F202029142029000F0F880A8
:10264000FFE70898016801204022C4F2020291428B
:10265000029000F0ED80FFE7089801680120582201
:10266000C4F202029142029000F0E280FFE7089873
:10267000016801207022C4F202029142029000F02F
:10268000D780FFE70898016801208822C4F202027F
:102690009142029000F0CC80FFE708980168012089
:1026A000A022C4F202029142029000F0C180FFE732
:1026B000089801680120B822C4F2020291420290F7
:1026C00000F0B680FFE708980168012040F2104250
:1026D000C4F202029142029000F0AA80FFE708983B
:1026E0000168012040F22842C4F2020291420290A5
:1026F00000F09E80FFE708980168012040F2404208
:10270000C4F202029142029000F09280FFE7089822
:102710000168012040F25842C4F202029142029044
:1027200000F08680FFE708980168012040F27042BF
:10273000C4F20202914202907AD0FFE70898016841
:10274000012040F28842C4F20202914202906FD00E
:10275000FFE708980168012040F2A042C4F202029B
:102760009142029064D0FFE708980168012040F28E
:10277000B842C4F202029142029059D0FFE7089891
:102780000168012045F20842C5F60202914202901A
:102790004ED0FFE708980168012045F21C42C5F6BB
:1027A00002029142029043D0FFE70898016801209D
:1027B00045F23042C5F602029142029038D0FFE75E
:1027C00008980168012045F24442C5F60202914290
:1027D00002902DD0FFE708980168012045F2584289
:1027E000C5F602029142029022D0FFE708980168E4
:1027F000012045F26C42C5F602029142029017D0C8
:10280000FFE708980168012045F28042C5F6020200
:10281000914202900CD0FFE7089800684AF66C31AC
:10282000CAF2FD710844B0FA80F040090290FFE757
:102830000298C00770B1FFE70898416E806E48604B
:102840000898C06E28B1FFE70898016F406F486094
:10285000FFE7FFE70898016801201022C4F2020296
:102860009142019000F0A380FFE7089801680120E1
:102870002822C4F202029142019000F09880FFE702
:102880000898016801204022C4F20202914201909E
:1028900000F08D80FFE70898016801205822C4F2FB
:1028A00002029142019000F08280FFE708980168DF
:1028B00001207022C4F202029142019077D0FFE71A
:1028C0000898016801208822C4F202029142019016
:1028D0006DD0FFE7089801680120A022C4F202022F
:1028E0009142019063D0FFE7089801680120B82267
:1028F000C4F202029142019059D0FFE708980168A2
:10290000012040F21042C4F20202914201904ED0E6
:10291000FFE708980168012040F22842C4F2020251
:102920009142019043D0FFE708980168012040F2EE
:102930004042C4F202029142019038D0FFE7089869
:102940000168012040F25842C4F202029142019013
:102950002DD0FFE708980168012040F27042C4F2D0
:1029600002029142019022D0FFE7089801680120FD
:1029700040F28842C4F202029142019017D0FFE770
:1029800008980168012040F2A042C4F2020291427C
:1029900001900CD0FFE7089800684FF64831CBF65D
:1029A000FD710844B0FA80F040090190FFE70198FA
:1029B000C00750B3FFE70898C06D00F01F013F202B
:1029C00088400499886008980168086820F480208D
:1029D0000860059808990968486008988068402848
:1029E00009D1FFE70698089909688860079808994F
:1029F0000968C86008E0079808990968886006981F
:102A000008990968C860FFE782E00898016801201A
:102A100045F20842C5F60202914200904ED0FFE70F
:102A200008980168012045F21C42C5F60202914255
:102A3000009043D0FFE708980168012045F230423A
:102A4000C5F602029142009038D0FFE7089801686D
:102A5000012045F24442C5F60202914200902DD079
:102A6000FFE708980168012045F25842C5F60202C6
:102A70009142009022D0FFE708980168012045F2BA
:102A80006C42C5F602029142009017D0FFE7089809
:102A90000168012045F28042C5F602029142009091
:102AA0000CD0FFE7089800684AF66C31CAF2FD7155
:102AB0000844B0FA80F040090090FFE70098C00792
:102AC00020B3FFE70898C06D00F01F010120884087
:102AD00003994860059808990968486008988068D3
:102AE000402809D1FFE70698089909688860079887
:102AF00008990968C86008E007980899096888601B
:102B0000069808990968C860FFE700E0FFE7FFE75B
:102B100009B070470000000070470000000000008E
:102B200080B5012004F0D0F980BD00000000000055
:102B300072B6FFE7FEE7000044F60C01C5F602019D
:102B4000086840F002000860FFE744F60400C5F69C
:102B5000020000688004002801D4FFE7F5E7704711
:102B6000F0B0ADF8BE01BDF8BE0108B9FFE789E1DC
:102B7000BDF8BE0164281CD1FFE70020ADF82A0093
:102B8000FFE7BDF82A00632812DCFFE7BDF82A2022
:102B900040F28400C2F2004050F822000BA941F834
:102BA0002200FFE7BDF82A000130ADF82A00E8E76F
:102BB00076E0BDF8BE01013800EE100AB8EEC00A9A
:102BC0009FEDB11A80EE010A8DED090A0020ADF8E3
:102BD0002A00FFE7BDF82A00632860DCFFE7BDF8A4
:102BE0002A0000EE100AB8EEC00A9DED091A20EE88
:102BF000010A8DED080A9DED080ABCEEC00A10EE30
:102C0000100AADF81E009DED080ABDF81E0001EE89
:102C1000100AB8EEC11A30EE410A8DED060ABDF871
:102C20001E00BDF8BE110139884210DBFFE7BDF878
:102C3000BE1140F28400C2F2004000EB810050F867
:102C4000040CBDF82A200BA941F8220020E0BDF8B1
:102C50001E1040F28400C2F2004050F8211005918D
:102C6000BDF81E1000EB8100406804909DED050A40
:102C70009DED061A9DED042A32EE402AA1EE020ACD
:102C8000BDF82A100BA800EB810080ED000AFFE7D9
:102C9000FFE7BDF82A000130ADF82A009AE7FFE708
:102CA00000200390ADF82A00FFE7BDF82A00632852
:102CB00014DCFFE7BDF82A100BA800EB810090EDB3
:102CC000001A9DED030A30EE010A8DED030AFFE7BD
:102CD000BDF82A000130ADF82A00E6E79DED030AB1
:102CE0009FED6A1A80EE010A8DED020A0020ADF810
:102CF0002A00FFE7BDF82A00632814DCFFE79DEDFA
:102D0000021ABDF82A100BA800EB810090ED000A12
:102D100030EE410A80ED000AFFE7BDF82A000130DD
:102D2000ADF82A00E6E70B9801900120ADF82A00E3
:102D3000FFE7BDF82A0063281DDCFFE7BDF82A1075
:102D40000BA800EB810090ED000A9DED011AB4EE96
:102D5000410AF1EE10FA07DDFFE7BDF82A100BA8D3
:102D600050F821000190FFE7FFE7BDF82A0001308D
:102D7000ADF82A00DDE79DED010AB5EE400AF1EE5F
:102D800010FA1ED0FFE70020ADF82A00FFE7BDF8DB
:102D90002A00632814DCFFE79DED011ABDF82A1014
:102DA0000BA800EB810090ED000A80EE010A80ED97
:102DB000000AFFE7BDF82A000130ADF82A00E6E777
:102DC000FFE70020ADF82A00FFE7BDF82A006328DE
:102DD00014DCFFE7BDF82A100BA800EB810090ED92
:102DE000000A9FED2D1A20EE010A80ED000AFFE790
:102DF000BDF82A000130ADF82A00E6E70020ADF862
:102E00002A00FFE7BDF82A0063283BDCFFE7BDF896
:102E10002A100BA800EB810090ED000A9FED1C1A10
:102E200030EE010A8DED000A9DED000AB5EE400A74
:102E3000F1EE10FA03DAFFE700200090FFE79DEDC6
:102E4000000A9FED141AB4EE410AF1EE10FA05DD06
:102E5000FFE70020C4F27F300090FFE79DED000AFD
:102E6000BCEEC00A10EE100ABDF82A2040F218018C
:102E7000C2F200418854FFE7BDF82A000130ADF8E6
:102E80002A00BFE770B070470000C6420000C84289
:102E90000000004300007F430000F04200000000FB
:102EA00080B5A6B02490239100208DF88B00239844
:102EB000006808B1FFE7FFE7FFE7249890F85000AB
:102EC000012804D1FFE702208DF897002DE1249915
:102ED000012081F85000FFE7FFE700201D901E90C1
:102EE0002498006842F20001C4F20201884206D12F
:102EF000FFE742F20010C4F20200089002E0002056
:102F00000890FFE7089878B9FFE72499486D40F0EA
:102F100020004865FFE72499002081F85000FFE772
:102F200001208DF8970000E1089809F07DF90790DD
:102F30002498006809F078F9002840F0E280FFE763
:102F40000798002840F0DD80FFE724980168012001
:102F500042F20002C4F20202914206900CD0FFE756
:102F6000249800684DF60071CBF6FD710844B0FA64
:102F700080F040090690FFE70698C10746F200304E
:102F8000C5F6020000291CBF42F20030C4F2020064
:102F900021902398006800285ED0FFE72198806880
:102FA00020F4404023994968084321998860249877
:102FB0000168012042F20002C4F20202914205902F
:102FC0000CD0FFE7249800684DF60071CBF6FD7138
:102FD0000844B0FA80F040090590FFE70598C10762
:102FE00046F20030C5F6020000291CBF42F2003054
:102FF000C4F2020042F20031C4F20201884212D14E
:10300000FFE742F20000C4F2020009F0F5F8039075
:1030100042F20010C4F2020009F0EEF801460398F3
:103020000843049007E046F20000C5F6020009F0EC
:10303000E3F80490FFE7049868B9FFE721988068F7
:1030400040F61F718843239A116892681143084320
:1030500021998860FFE753E02199886820F4404077
:10306000886024980168012042F20002C4F2020242
:10307000914202900CD0FFE7249800684DF6007151
:10308000CBF6FD710844B0FA80F040090290FFE7EA
:103090000298C10746F20030C5F6020000291CBFA5
:1030A00042F20030C4F2020042F20031C4F20201E6
:1030B000884212D1FFE742F20000C4F2020009F098
:1030C0009BF8009042F20010C4F2020009F094F85C
:1030D000014600980843019007E046F20000C5F65B
:1030E000020009F089F80190FFE7019838B9FFE77D
:1030F0002199886840F61F7290438860FFE7FFE7D8
:1031000008E02499486D40F02000486501208DF8C2
:103110008B00FFE7FFE72499002081F85000FFE7CC
:103120009DF88B008DF89700FFE79DF8970026B07B
:1031300080BD00000000000080B5AAB02690259157
:1031400000208DF893002190269890F838000128EF
:1031500001D1FFE700E0FFE72698006846F2000192
:10316000C5F60201884201D1FFE7FFE72598C06854
:103170000021C4F2FF71884201D0FFE71EE02698CB
:10318000006842F20001C4F20201884201D1FFE767
:10319000FFE72698006842F20011C4F2020188425B
:1031A00001D1FFE7FFE72698006846F20001C5F667
:1031B0000201884201D1FFE7FFE7FFE7FFE726981A
:1031C00090F85000012804D1FFE702208DF89F00FD
:1031D000F1E32699012081F85000FFE7FFE72698E8
:1031E000006809F019F8002840F0D183FFE725981E
:1031F000C078000600282DD4FFE72598006800035A
:1032000030B9FFE725980068C0F384601E9015E090
:103210002598006890FAA0F02890289820B9FFE738
:1032200020208DF8A70005E02898B0FA80F08DF8EE
:10323000A700FFE79DF8A7001E90FFE71E9800F08B
:103240001F01012000FA01F226980168C8691043A5
:10325000C861FFE72698006825990A68496809F05F
:1032600007F82698006808F0D7FF20902698006895
:1032700008F092FF1F902098002840F0B580FFE7EB
:103280001F98002840F0B080FFE726980068259A34
:103290001168926809F05CF841F20000C5F6004040
:1032A000006800F07040B0F1805F0BD1FFE7259817
:1032B000406926990968C96801F01C0149088840DD
:1032C0001D901FE026980068C068C00600280BD437
:1032D000FFE72598406926990968C96801F01C0133
:1032E000490888401C900AE0259840692699096899
:1032F000C96801F01001490888401C90FFE71C983C
:103300001D90FFE71D98239025980069042821D07F
:10331000FFE72698006825990A680969239B09F048
:1033200083F826980068259A1169527E013AB2FA0C
:1033300082F25209D20709F093F826980068259A7C
:103340001169127E013AB2FA82F25209D20209F0F0
:1033500057F848E026980068006E00F0F84025997C
:103360000968B0EB816F07D1FFE726980168086E06
:1033700020F000400866FFE726980068406E00F0E5
:10338000F84025990968B0EB816F07D1FFE72698CF
:103390000168486E20F000404866FFE72698006804
:1033A000806E00F0F84025990968B0EB816F07D175
:1033B000FFE726980168886E20F000408866FFE7E6
:1033C00026980068C06E00F0F84025990968B0EBB7
:1033D000816F07D1FFE726980168C86E20F0004092
:1033E000C866FFE7FFE7FFE72698006808F0FCFEE5
:1033F000002840F0CB82FFE726980068259A1168E4
:10340000D26808F0C1FF2598C0680021C4F2FF719E
:10341000884240F05781FFE7269800681B9042F2EF
:103420000001C4F20201884240F0A480FFE7259821
:1034300000680221C0F23041884203D1FFE7012039
:103440001A9094E0259800680421C0F66001884233
:1034500005D1FFE74020C1F62010199084E025989F
:1034600000680821C0F69041884205D1FFE780201E
:10347000C1F65050189074E0259800681021C1F2F0
:10348000C001884206D1FFE740F20010C2F280106E
:10349000179063E0259800682021C1F2F04188422E
:1034A00006D1FFE740F20020C2F2B050169052E081
:1034B0002598006840F20041C2F60021884206D1FA
:1034C000FFE740F60000C2F63060159040E0259816
:1034D000006840F60001C2F63061884206D1FFE77D
:1034E00041F20000C3F2602014902EE0259800689D
:1034F00041F20001C3F26021884206D1FFE742F2A7
:103500000000C3F2906013901CE025980068002131
:10351000C4F22131884205D1FFE70020C4F2527085
:1035200012900CE0259801680022C4F68432002035
:10353000914204BF0020C4F6B8701290FFE71298C1
:103540001390FFE713981490FFE714981590FFE786
:1035500015981690FFE716981790FFE717981890A0
:10356000FFE718981990FFE719981A90FFE71A9843
:103570001190A2E02698006842F20011C4F2020104
:10358000884240F09480FFE7259800680221C0F24D
:103590003041884203D1FFE70120109084E0259854
:1035A00000680421C0F66001884205D1FFE7402091
:1035B000C1F620100F9074E0259800680821C0F62D
:1035C0009041884205D1FFE78020C1F650500E900F
:1035D00064E0259800681021C1F2C001884206D13C
:1035E000FFE740F20010C2F280100D9053E02598E2
:1035F00000682021C1F2F041884206D1FFE740F285
:103600000020C2F2B0500C9042E02598006840F2D1
:103610000041C2F60021884206D1FFE740F60000D3
:10362000C2F630600B9030E02598006840F600014B
:10363000C2F63061884206D1FFE741F20000C3F2D2
:1036400060200A901EE02598006841F20001C3F254
:103650006021884206D1FFE742F20000C3F2906089
:1036600009900CE0259801680022C4F684320020FD
:10367000914204BF0020C4F6B8700990FFE7099892
:103680000A90FFE70A980B90FFE70B980C90FFE772
:103690000C980D90FFE70D980E90FFE70E980F9095
:1036A000FFE70F981090FFE71098089002E00020C5
:1036B0000890FFE708981190FFE71B98119908F010
:1036C00017FEFFE72598C0780006002840F15D81CD
:1036D000FFE726980168012042F20002C4F20202CC
:1036E000914207900CD0FFE7269800684DF60071D4
:1036F000CBF6FD710844B0FA80F040090790FFE76F
:103700000798C10746F20030C5F6020000291CBF29
:1037100042F20030C4F2020008F02EFD22902698FA
:1037200001684FF0010042F20002C4F2020291422D
:1037300006900CD0FFE7269800684DF60071CBF696
:10374000FD710844B0FA80F040090690FFE7069842
:10375000C10746F20030C5F6020000291CBF42F244
:103760000030C4F2020042F20031C4F20201884289
:1037700012D1FFE742F20000C4F2020008F034FD6B
:10378000049042F20010C4F2020008F02DFD014640
:1037900004980843059007E046F20000C5F60200D1
:1037A00008F022FD0590FFE70598002840F0E3802F
:1037B000FFE7259800680021CCF68431884255D176
:1037C000FFE79DF88A00000600284FD4FFE72698FF
:1037D000006846F20001C5F60201884245D1FFE7C4
:1037E00026980168012042F20002C4F202029142CE
:1037F00003900CD0FFE7269800684DF60071CBF6D9
:10380000FD710844B0FA80F040090390FFE7039887
:10381000C10746F20030C5F6020000291CBF42F283
:103820000030C4F20200229941F4000108F0D8FDF2
:1038300040F20800C2F2004000684FEA901042F6E1
:103840006351C0F23E51A0FB01104FEA90114FF0BE
:10385000020000EB41002190FFE7219820B1FFE733
:10386000219801382190F8E7FFE783E02598006868
:103870000021CCF25271884238D1FFE79DF88B00CD
:10388000C00798BBFFE72698006846F20001C5F61E
:103890000201884229D1FFE726980168012042F2FF
:1038A0000002C4F20202914202900CD0FFE7269877
:1038B00000684DF60071CBF6FD710844B0FA80F057
:1038C00040090290FFE70298C10746F20030C5F6B2
:1038D000020000291CBF42F20030C4F2020022990B
:1038E00041F0807108F07CFDFFE742E02598006818
:1038F0000021CCF6B871884239D1FFE79DF88A00E3
:103900004006002833D4FFE72698006846F20001FD
:10391000C5F60201884229D1FFE7269801680120F7
:1039200042F20002C4F20202914201900CD0FFE781
:10393000269800684DF60071CBF6FD710844B0FA88
:1039400080F040090190FFE70198C10746F200307E
:10395000C5F6020000291CBF42F20030C4F202008A
:10396000229941F4800108F03BFDFFE700E0FFE70A
:10397000FFE7FFE708E02699486D40F02000486522
:1039800001208DF89300FFE7FFE7FFE708E02699A5
:10399000486D40F02000486501208DF89300FFE756
:1039A000FFE72699002081F85000FFE79DF893007B
:1039B0008DF89F00FFE79DF89F002AB080BD0000B2
:1039C00080B582B00190019844F2E061C2F20041FA
:1039D00088420DD1FFE744F2E060C2F2004000F0FF
:1039E000DFFB44F2D861C2F200410120087015E00B
:1039F000019844F24471C2F2004188420DD1FFE7C0
:103A000044F24470C2F2004000F0CAFB44F2D961B3
:103A1000C2F2004101200870FFE7FFE702B080BD5D
:103A200081B0009001B0704781B0009001B0704744
:103A300010B58CB00A9000208DF8270006900A98E7
:103A400020B9FFE701208DF82F00D1E10A98C06866
:103A500038B1FFE70A98007F012801D1FFE7FFE7AF
:103A6000FFE70A98406D50B9FFE70A9800F0C4F9E3
:103A70000A99002088650A9981F85000FFE70A98A2
:103A8000006808F0A1FB28B1FFE70A98006808F079
:103A900047FBFFE70A98006808F0B6FBE8B9FFE7C4
:103AA0000A98006808F058FB40F20800C2F2004093
:103AB0000068800942F66351C0F23E51A0FB01014B
:103AC000012000EB91100690FFE7069820B1FFE778
:103AD000069801380690F8E7FFE70A98006808F0B2
:103AE00093FB70B9FFE70A99486D40F010004865F4
:103AF0000A99886D40F00100886501208DF8270043
:103B0000FFE70A98006808F087FB07900A98406D65
:103B1000C006002800F15E81FFE70798002840F00A
:103B20005981FFE70A98406D40F0020020F4807050
:103B30000A9948650A98006808F056FB002870D179
:103B4000FFE70A980168012042F20002C4F2020273
:103B5000914203900CD0FFE70A9800684DF600717F
:103B6000CBF6FD710844B0FA80F040090390FFE7FE
:103B70000398C10746F20030C5F6020000291CBFB9
:103B800042F20030C4F2020042F20031C4F20201FB
:103B9000884212D1FFE742F20000C4F2020008F0AE
:103BA00023FB019042F20010C4F2020008F01CFB5B
:103BB000014601980843029007E046F20000C5F66E
:103BC000020008F011FB0290FFE7029840BBFFE7FC
:103BD0000A980168012042F20002C4F202029142F6
:103BE00000900CD0FFE70A9800684DF60071CBF604
:103BF000FD710844B0FA80F040090090FFE700989A
:103C0000C10746F20030C5F6020000291CBF42F28F
:103C10000030C4F202000A99496808F0D1FBFFE7BE
:103C2000FFE703F08DFB41F20401884213D3FFE765
:103C30000A98806810280ED1FFE70A994A7D086B20
:103C400040EA42308A681043097F40EA014040F070
:103C50000C0008900BE00A994A7D086B40EA42305C
:103C60008A681043097F40EA01400890FFE70A98FC
:103C7000007F01280BD1FFE70A98016A0020CFF6E8
:103C8000FE7000EB4141089808430890FFE70A984E
:103C9000406A50B1FFE70A99486A896A00F478706F
:103CA0000143089808430890FFE70A980068C06835
:103CB0004CF20301CFF6F0710840089908430A99C5
:103CC0000968C8600A98006808F0A6FA05900A9882
:103CD000006808F061FA04900598002859D1FFE7C0
:103CE0000498002855D1FFE70A98017DC06A40EA90
:103CF000813008900A980068C06844F20301884344
:103D0000089908430A990968C8600A9890F8380029
:103D1000012829D1FFE70A98406A20B1FFE70A98F5
:103D2000806A08B9FFE7FFE70A98006800694FF664
:103D30001E01CFF6004100EA01020A9B1968DC6B04
:103D4000D3F840E0D3F844C00020CFF6FF7000EB7A
:103D5000044040EA0E0040EA0C009B6C18431043FC
:103D600040F00100086106E00A980168086920F047
:103D700001000861FFE70A980068006920F07040C0
:103D80000A9A1168526B104308610A98FCF760FDAB
:103D9000FFE70A98C06801280CD1FFE70A9800687D
:103DA000006B20F00F000A9A11689269013A1043E3
:103DB000086306E00A980168086B20F00F000863AA
:103DC000FFE70A98406D40F0010020F002000A99D8
:103DD000486508E00A99486D40F0100048650120E8
:103DE0008DF82700FFE79DF827008DF82F00FFE7EB
:103DF0009DF82F000CB010BD80B58EB00D90002046
:103E00000C900B900A90099008900D98006842F26F
:103E10000001C4F20201884263D1FFE740F2800052
:103E2000C2F200400168013101600068012810D130
:103E3000FFE7FFE744F2D840C5F60200016841F011
:103E400020010160006800F0200007900798FFE75C
:103E5000FFE7FFE744F2E040C5F60200016841F0E9
:103E600001010160006800F0010006900698FFE77C
:103E70000120089003200990002002900A90002061
:103E8000C5F6020008A903F03BF8029944F2A870B5
:103E9000C2F2004003901022C4F202020260092222
:103EA00042608160C1604FF4806202614FF4006241
:103EB00042614FF400528261C1610162416201F0CE
:103EC0007BFF18B1FFE7FEF733FEFFE7FFE70D9832
:103ED00044F2A871C2F20041C1640D988863FFE703
:103EE0006CE00D98006842F20011C4F202018842B1
:103EF00063D1FFE740F28000C2F200400168013167
:103F000001600068012810D1FFE7FFE744F2D840C4
:103F1000C5F60200016841F020010160006800F070
:103F2000200005900598FFE7FFE7FFE744F2E04037
:103F3000C5F60200016841F001010160006800F06F
:103F4000010004900498FFE70420089003200990E2
:103F5000002000900A900020C5F6020008A902F097
:103F6000CFFF009944F62000C2F2004001902822C1
:103F7000C4F2020202600A2242608160C1604FF412
:103F8000806202614FF4006242614FF4005282612C
:103F9000C1610162416201F00FFF18B1FFE7FEF756
:103FA000C7FDFFE7FFE70D9844F62001C2F200418C
:103FB000C1640D988863FFE7FFE7FFE70EB080BD9F
:103FC00080B588B00690059104920698016801209A
:103FD00042F20002C4F20202914201900CD0FFE7CB
:103FE000069800684DF60071CBF6FD710844B0FAF2
:103FF00080F040090190FFE70198C10746F20030C8
:10400000C5F6020000291CBF42F20030C4F20200D3
:1040100008F0BAF802900698006808F0FDF8002849
:1040200040F0AF80FFE7FFE7069890F850000128C6
:1040300004D1FFE702208DF81F00ABE006990120B4
:1040400081F85000FFE7FFE7029848B1FFE70298C8
:10405000052805D0FFE70298092840F08780FFE790
:104060000698FCF7C1FE8DF80F009DF80F000028A0
:1040700074D1FFE70698406D40F4807040F601610E
:104080008843069948650698006842F20011C4F218
:104090000201884206D1FFE742F20000C4F20200AA
:1040A000009003E0069800680090FFE700980699EA
:1040B0000968884203D0FFE7029830B9FFE7069904
:1040C000486D20F480104865FFE70698406DC004F5
:1040D000002806D5FFE70699886D20F00600886560
:1040E00003E0069900208865FFE70698C16C40F65A
:1040F0000140C0F60000C8630698C16C40F6095044
:10410000C0F6000008640698C16C40F6D940C0F6BD
:104110000000C864069801681C200860FFE7069943
:10412000002081F85000FFE706980168486840F0D9
:104130001000486006990868C96A08F089F806986E
:104140000168C06C4031059A049B02F0E9FA8DF8D1
:104150000F000698006808F0ABF806E0FFE7069944
:10416000002081F85000FFE7FFE709E001208DF80B
:104170000F00FFE70699002081F85000FFE7FFE7F6
:1041800003E002208DF80F00FFE79DF80F008DF887
:104190001F00FFE79DF81F0008B080BD0000000071
:1041A00080B584B00290FFE7029890F85000012893
:1041B00004D1FFE702208DF80F005DE00299012095
:1041C00081F85000FFE7FFE702980321FCF74CFC61
:1041D0008DF807009DF80700002842D1FFE70298FC
:1041E0000068C06820F0030002990968C86002985E
:1041F000C06C90F83500022811D1FFE70298C06C1E
:1042000000F03EF88DF807009DF8070030B1FFE799
:104210000299486D40F040004865FFE7FFE70298CB
:104220000168486820F0100048609DF8070030B928
:10423000FFE70298FCF774FD8DF8070003E0029891
:10424000FCF76EFDFFE79DF8070048B9FFE702980D
:10425000406D40F0010020F4885002994865FFE766
:10426000FFE7FFE70299002081F85000FFE79DF883
:1042700007008DF80F00FFE79DF80F0004B080BD28
:1042800080B58AB0089003F063F80490089828B9C4
:10429000FFE701208DF8270000F0AABC089890F8ED
:1042A000350002280ED0FFE7089980204865FFE717
:1042B0000899002081F83400FFE701208DF82700DD
:1042C00000F096BC089800681021C4F202018842F0
:1042D00000F08180FFE7089800682821C4F20201FD
:1042E000884278D0FFE7089800684021C4F20201B4
:1042F000884270D0FFE7089800685821C4F2020194
:10430000884268D0FFE7089800687021C4F2020173
:10431000884260D0FFE7089800688821C4F2020153
:10432000884258D0FFE708980068A021C4F2020133
:10433000884250D0FFE708980068B821C4F2020113
:10434000884248D0FFE70898006840F21041C4F264
:10435000020188423FD0FFE70898006840F22841F8
:10436000C4F20201884236D0FFE70898006840F2A4
:104370004041C4F2020188422DD0FFE7089800684E
:1043800040F25841C4F20201884224D0FFE7089865
:10439000006840F27041C4F2020188421BD0FFE77E
:1043A0000898006840F28841C4F20201884212D0A5
:1043B000FFE70898006840F2A041C4F20201884279
:1043C00009D0FFE70898006840F2B841C4F2020142
:1043D000884207D1FFE708980168086820F00100CB
:1043E000086006E008980168086820F0010008608D
:1043F000FFE70898016801201022C4F202029142EE
:10440000039000F0A380FFE70898016801202822AC
:10441000C4F202029142039000F09880FFE70898EE
:10442000016801204022C4F202029142039000F090
:104430008D80FFE70898016801205822C4F202022B
:104440009142039000F08280FFE708980168012004
:104450007022C4F202029142039077D0FFE70898DD
:10446000016801208822C4F20202914203906DD0BB
:10447000FFE7089801680120A022C4F202029142DD
:10448000039063D0FFE7089801680120B822C4F2C6
:1044900002029142039059D0FFE708980168012079
:1044A00040F21042C4F20202914203904ED0FFE764
:1044B00008980168012040F22842C4F202029142A9
:1044C000039043D0FFE708980168012040F2404282
:1044D000C4F202029142039038D0FFE708980168C5
:1044E000012040F25842C4F20202914203902DD0C2
:1044F000FFE708980168012040F27042C4F202020E
:104500009142039022D0FFE708980168012040F211
:104510008842C4F202029142039017D0FFE7089844
:104520000168012040F2A042C4F2020291420390CD
:104530000CD0FFE7089800684FF64831CBF6FD71C4
:104540000844B0FA80F040090390FFE70398C007E1
:1045500080B1FFE708980168086820F01E00086035
:1045600008980168486920F0800048610898006850
:10457000059009E008980168086820F00E000860BE
:10458000089800680590FFE708980168012010224C
:10459000C4F202029142029000F00381FFE7089802
:1045A000016801202822C4F202029142029000F028
:1045B000F880FFE70898016801204022C4F2020257
:1045C0009142029000F0ED80FFE708980168012019
:1045D0005822C4F202029142029000F0E280FFE70A
:1045E0000898016801207022C4F2020291420290F0
:1045F00000F0D780FFE70898016801208822C4F204
:1046000002029142029000F0CC80FFE70898016816
:104610000120A022C4F202029142029000F0C18067
:10462000FFE7089801680120B822C4F20202914213
:10463000029000F0B680FFE708980168012040F280
:104640001042C4F202029142029000F0AA80FFE7F9
:1046500008980168012040F22842C4F20202914207
:10466000029000F09E80FFE708980168012040F268
:104670004042C4F202029142029000F09280FFE7B1
:1046800008980168012040F25842C4F202029142A7
:10469000029000F08680FFE708980168012040F250
:1046A0007042C4F20202914202907AD0FFE7089869
:1046B0000168012040F28842C4F202029142029055
:1046C0006FD0FFE708980168012040F2A042C4F2D1
:1046D00002029142029064D0FFE70898016801202D
:1046E00040F2B842C4F202029142029059D0FFE770
:1046F00008980168012045F20842C5F6020291427D
:1047000002904ED0FFE708980168012045F21C4254
:10471000C5F602029142029043D0FFE70898016873
:10472000012045F23042C5F602029142029038D093
:10473000FFE708980168012045F24442C5F60202ED
:10474000914202902DD0FFE708980168012045F2C0
:104750005842C5F602029142029022D0FFE7089823
:104760000168012045F26C42C5F6020291420290B6
:1047700017D0FFE708980168012045F28042C5F68E
:104780000202914202900CD0FFE7089800684AF6B6
:104790006C31CAF2FD710844B0FA80F04009029011
:1047A000FFE70298C00738B1FFE70898016E086874
:1047B00020F480700860FFE7FFE705980068C007F5
:1047C000C8B1FFE702F0C4FD0499401A062811D3CE
:1047D000FFE70899202048650899032081F83500F3
:1047E000FFE70899002081F83400FFE701208DF8E9
:1047F0002700FDE1E1E70898016801201022C4F2DA
:1048000002029142019000F0A380FFE7089801683E
:1048100001202822C4F202029142019000F0988007
:10482000FFE70898016801204022C4F20202914289
:10483000019000F08D80FFE7089801680120582260
:10484000C4F202029142019000F08280FFE70898D2
:10485000016801207022C4F202029142019077D0D7
:10486000FFE70898016801208822C4F20202914201
:1048700001906DD0FFE7089801680120A022C4F2E2
:1048800002029142019063D0FFE70898016801207D
:10489000B822C4F202029142019059D0FFE7089871
:1048A0000168012040F21042C4F2020291420190DC
:1048B0004ED0FFE708980168012040F22842C4F278
:1048C00002029142019043D0FFE70898016801205D
:1048D00040F24042C4F202029142019038D0FFE718
:1048E00008980168012040F25842C4F20202914245
:1048F00001902DD0FFE708980168012040F2704236
:10490000C4F202029142019022D0FFE708980168A8
:10491000012040F28842C4F202029142019017D075
:10492000FFE708980168012040F2A042C4F20202A9
:10493000914201900CD0FFE7089800684FF648318B
:10494000CBF6FD710844B0FA80F040090190FFE712
:104950000198C00760B1FFE70898806D079008983C
:10496000C06D00F01F013F208840079988600BE070
:104970000898806D06900898C06D00F01F01012016
:10498000884006994860FFE70898016801201022D6
:10499000C4F202029142009000F00381FFE7089800
:1049A000016801202822C4F202029142009000F026
:1049B000F880FFE70898016801204022C4F2020253
:1049C0009142009000F0ED80FFE708980168012017
:1049D0005822C4F202029142009000F0E280FFE708
:1049E0000898016801207022C4F2020291420090EE
:1049F00000F0D780FFE70898016801208822C4F200
:104A000002029142009000F0CC80FFE70898016814
:104A10000120A022C4F202029142009000F0C18065
:104A2000FFE7089801680120B822C4F2020291420F
:104A3000009000F0B680FFE708980168012040F27E
:104A40001042C4F202029142009000F0AA80FFE7F7
:104A500008980168012040F22842C4F20202914203
:104A6000009000F09E80FFE708980168012040F266
:104A70004042C4F202029142009000F09280FFE7AF
:104A800008980168012040F25842C4F202029142A3
:104A9000009000F08680FFE708980168012040F24E
:104AA0007042C4F20202914200907AD0FFE7089867
:104AB0000168012040F28842C4F202029142009053
:104AC0006FD0FFE708980168012040F2A042C4F2CD
:104AD00002029142009064D0FFE70898016801202B
:104AE00040F2B842C4F202029142009059D0FFE76E
:104AF00008980168012045F20842C5F60202914279
:104B000000904ED0FFE708980168012045F21C4252
:104B1000C5F602029142009043D0FFE70898016871
:104B2000012045F23042C5F602029142009038D091
:104B3000FFE708980168012045F24442C5F60202E9
:104B4000914200902DD0FFE708980168012045F2BE
:104B50005842C5F602029142009022D0FFE7089821
:104B60000168012045F26C42C5F6020291420090B4
:104B700017D0FFE708980168012045F28042C5F68A
:104B80000202914200900CD0FFE7089800684AF6B4
:104B90006C31CAF2FD710844B0FA80F0400900900F
:104BA000FFE70098C007A0B1FFE70898416E806E4C
:104BB00048600898C06E58B1FFE70898C16E086851
:104BC00020F4807008600898016F406F4860FFE72C
:104BD000FFE70899012081F83500FFE708990020D8
:104BE00081F83400FFE7FFE700208DF82700FFE79A
:104BF0009DF827000AB080BD80B590B00F900020CE
:104C00000B9040F20800C2F20040006848F2B51173
:104C1000C1F64E31A0FB0110800A0A900F98806DFA
:104C200009900F98806D0890099800680E90089878
:104C300000680D900F98016801201022C4F2020252
:104C40009142079000F0A380FFE70F9801680120D0
:104C50002822C4F202029142079000F09880FFE7F8
:104C60000F98016801204022C4F20202914207908D
:104C700000F08D80FFE70F98016801205822C4F2F0
:104C800002029142079000F08280FFE70F980168CE
:104C900001207022C4F202029142079077D0FFE710
:104CA0000F98016801208822C4F202029142079005
:104CB0006DD0FFE70F9801680120A022C4F2020224
:104CC0009142079063D0FFE70F9801680120B82256
:104CD000C4F202029142079059D0FFE70F98016891
:104CE000012040F21042C4F20202914207904ED0DD
:104CF000FFE70F980168012040F22842C4F2020247
:104D00009142079043D0FFE70F980168012040F2DD
:104D10004042C4F202029142079038D0FFE70F9858
:104D20000168012040F25842C4F202029142079009
:104D30002DD0FFE70F980168012040F27042C4F2C5
:104D400002029142079022D0FFE70F9801680120EC
:104D500040F28842C4F202029142079017D0FFE766
:104D60000F980168012040F2A042C4F20202914271
:104D700007900CD0FFE70F9800684FF64831CBF64C
:104D8000FD710844B0FA80F040090790FFE70798EA
:104D9000C007002800F01385FFE70E980F99C96D32
:104DA00001F01F01C8400007002840F1B080FFE774
:104DB0000F9800681021C4F20201884200F081803F
:104DC000FFE70F9800682821C4F20201884278D0DA
:104DD000FFE70F9800684021C4F20201884270D0BA
:104DE000FFE70F9800685821C4F20201884268D09A
:104DF000FFE70F9800687021C4F20201884260D07A
:104E0000FFE70F9800688821C4F20201884258D059
:104E1000FFE70F980068A021C4F20201884250D039
:104E2000FFE70F980068B821C4F20201884248D019
:104E3000FFE70F98006840F21041C4F20201884277
:104E40003FD0FFE70F98006840F22841C4F202010A
:104E5000884236D0FFE70F98006840F24041C4F224
:104E6000020188422DD0FFE70F98006840F25841B8
:104E7000C4F20201884224D0FFE70F98006840F294
:104E80007041C4F2020188421BD0FFE70F9800680E
:104E900040F28841C4F20201884212D0FFE70F9825
:104EA000006840F2A041C4F20201884209D0FFE745
:104EB0000F98006840F2B841C4F20201884207D15D
:104EC000FFE70F980068006800F00400069006E015
:104ED0000F980068006800F008000690FFE7069849
:104EE000A0B1FFE70F980168086820F0040008608F
:104EF0000F98C06D00F01F01082088400999886054
:104F00000F99486D40F001004865FFE7FFE70E98F4
:104F10000F99C96D01F01F01C840C007002800F0BB
:104F2000A980FFE70F9800681021C4F202018842AF
:104F300000F08180FFE70F9800682821C4F2020189
:104F4000884278D0FFE70F9800684021C4F2020140
:104F5000884270D0FFE70F9800685821C4F2020120
:104F6000884268D0FFE70F9800687021C4F2020100
:104F7000884260D0FFE70F9800688821C4F20201E0
:104F8000884258D0FFE70F980068A021C4F20201C0
:104F9000884250D0FFE70F980068B821C4F20201A0
:104FA000884248D0FFE70F98006840F21041C4F2F1
:104FB000020188423FD0FFE70F98006840F2284185
:104FC000C4F20201884236D0FFE70F98006840F231
:104FD0004041C4F2020188422DD0FFE70F980068DB
:104FE00040F25841C4F20201884224D0FFE70F98F2
:104FF000006840F27041C4F2020188421BD0FFE712
:105000000F98006840F28841C4F20201884212D031
:10501000FFE70F98006840F2A041C4F20201884205
:1050200009D0FFE70F98006840F2B841C4F20201CE
:10503000884207D1FFE70F980068406900F08000C0
:10504000059005E00F980068006800200590FFE7D4
:10505000059870B1FFE70F98C06D00F01F010120A7
:105060008840099988600F99486D40F002004865B2
:10507000FFE7FFE70E980F99C96D01F01F01C840C7
:105080004007002840F1A980FFE70F980068102131
:10509000C4F20201884200F08180FFE70F980068A7
:1050A0002821C4F20201884278D0FFE70F980068F7
:1050B0004021C4F20201884270D0FFE70F980068D7
:1050C0005821C4F20201884268D0FFE70F980068B7
:1050D0007021C4F20201884260D0FFE70F98006897
:1050E0008821C4F20201884258D0FFE70F98006877
:1050F000A021C4F20201884250D0FFE70F98006857
:10510000B821C4F20201884248D0FFE70F98006836
:1051100040F21041C4F2020188423FD0FFE70F98ED
:10512000006840F22841C4F20201884236D0FFE70D
:105130000F98006840F24041C4F2020188422DD02D
:10514000FFE70F98006840F25841C4F2020188421C
:1051500024D0FFE70F98006840F27041C4F20201CA
:1051600088421BD0FFE70F98006840F28841C4F2E4
:105170000201884212D0FFE70F98006840F2A04178
:10518000C4F20201884209D0FFE70F98006840F29C
:10519000B841C4F20201884207D1FFE70F980068C6
:1051A000006800F00200049005E00F9800680068B5
:1051B00000200490FFE7049870B1FFE70F98C06DDE
:1051C00000F01F0104208840099988600F99486DFC
:1051D00040F004004865FFE7FFE70E980F99C96D9E
:1051E00001F01F01C840C006002840F1DE80FFE743
:1051F0000F9800681021C4F20201884200F08180FB
:10520000FFE70F9800682821C4F20201884278D095
:10521000FFE70F9800684021C4F20201884270D075
:10522000FFE70F9800685821C4F20201884268D055
:10523000FFE70F9800687021C4F20201884260D035
:10524000FFE70F9800688821C4F20201884258D015
:10525000FFE70F980068A021C4F20201884250D0F5
:10526000FFE70F980068B821C4F20201884248D0D5
:10527000FFE70F98006840F21041C4F20201884233
:105280003FD0FFE70F98006840F22841C4F20201C6
:10529000884236D0FFE70F98006840F24041C4F2E0
:1052A000020188422DD0FFE70F98006840F2584174
:1052B000C4F20201884224D0FFE70F98006840F250
:1052C0007041C4F2020188421BD0FFE70F980068CA
:1052D00040F28841C4F20201884212D0FFE70F98E1
:1052E000006840F2A041C4F20201884209D0FFE701
:1052F0000F98006840F2B841C4F20201884207D119
:10530000FFE70F980068006800F00800039006E0CF
:105310000F980068006800F004000390FFE703980E
:10532000002841D0FFE70F98C06D00F01F0110204A
:105330008840099988600F98006800684003002839
:105340001AD5FFE70F98006800680003002809D409
:10535000FFE70F98006C20B1FFE70F98016C8847BA
:10536000FFE708E00F98806C20B1FFE70F98816C91
:105370008847FFE7FFE716E00F9800680068C00560
:10538000002807D4FFE70F980168086820F008009C
:105390000860FFE70F98006C20B1FFE70F98016CE1
:1053A0008847FFE7FFE7FFE7FFE70E980F99C96D12
:1053B00001F01F01C8408006002840F12681FFE768
:1053C0000F9800681021C4F20201884200F0818029
:1053D000FFE70F9800682821C4F20201884278D0C4
:1053E000FFE70F9800684021C4F20201884270D0A4
:1053F000FFE70F9800685821C4F20201884268D084
:10540000FFE70F9800687021C4F20201884260D063
:10541000FFE70F9800688821C4F20201884258D043
:10542000FFE70F980068A021C4F20201884250D023
:10543000FFE70F980068B821C4F20201884248D003
:10544000FFE70F98006840F21041C4F20201884261
:105450003FD0FFE70F98006840F22841C4F20201F4
:10546000884236D0FFE70F98006840F24041C4F20E
:10547000020188422DD0FFE70F98006840F25841A2
:10548000C4F20201884224D0FFE70F98006840F27E
:105490007041C4F2020188421BD0FFE70F980068F8
:1054A00040F28841C4F20201884212D0FFE70F980F
:1054B000006840F2A041C4F20201884209D0FFE72F
:1054C0000F98006840F2B841C4F20201884207D147
:1054D000FFE70F980068006800F01000029006E0F7
:1054E0000F980068006800F002000290FFE7029841
:1054F000002800F08980FFE70F98C06D00F01F01C1
:1055000020208840099988600F9890F83500042879
:1055100037D1FFE70F980168086820F0160008608F
:105520000F980168486920F0800048610F98006C6E
:1055300020B9FFE70F98806C38B1FFE70F9801683A
:10554000086820F008000860FFE70F98C06D00F0C1
:105550001F013F208840099988600F99012081F838
:105560003500FFE70F99002081F83400FFE70F981E
:10557000006D20B1FFE70F98016D8847FFE700F04D
:1055800019BC0F9800680068400300281AD5FFE78F
:105590000F98006800680003002809D5FFE70F98FE
:1055A000406C20B1FFE70F98416C8847FFE708E0A7
:1055B0000F98C06B20B1FFE70F98C16B8847FFE7DA
:1055C000FFE720E00F9800680068C005002811D4AC
:1055D000FFE70F980168086820F0100008600F9935
:1055E000012081F83500FFE70F99002081F8340091
:1055F000FFE7FFE70F98C06B20B1FFE70F98C16B83
:105600008847FFE7FFE7FFE7FFE70F98406D0028B7
:1056100000F0D480FFE70F98406DC007002800F02D
:10562000C480FFE70F99042081F835000F980068C7
:105630001021C4F20201884200F08180FFE70F9838
:1056400000682821C4F20201884278D0FFE70F9851
:1056500000684021C4F20201884270D0FFE70F9831
:1056600000685821C4F20201884268D0FFE70F9811
:1056700000687021C4F20201884260D0FFE70F98F1
:1056800000688821C4F20201884258D0FFE70F98D1
:105690000068A021C4F20201884250D0FFE70F98B1
:1056A0000068B821C4F20201884248D0FFE70F9891
:1056B000006840F21041C4F2020188423FD0FFE787
:1056C0000F98006840F22841C4F20201884236D0A7
:1056D000FFE70F98006840F24041C4F2020188429F
:1056E0002DD0FFE70F98006840F25841C4F2020144
:1056F000884224D0FFE70F98006840F27041C4F25E
:10570000020188421BD0FFE70F98006840F28841F1
:10571000C4F20201884212D0FFE70F98006840F2FD
:10572000A041C4F20201884209D0FFE70F98006847
:1057300040F2B841C4F20201884207D1FFE70F9856
:105740000168086820F00100086006E00F98016811
:10575000086820F001000860FFE7FFE70B980130C0
:105760000B900A99884201D9FFE707E0FFE70F98FD
:1057700000680068C0070028F0D1FFE70F980068B4
:105780000068C00728B1FFE70F99032081F83500B2
:1057900004E00F99012081F83500FFE7FFE70F993A
:1057A000002081F83400FFE7FFE70F98C06C20B1BC
:1057B000FFE70F98C16C8847FFE7FFE7FAE20F9811
:1057C0000168012045F20842C5F6020291420190AB
:1057D0004ED0FFE70F980168012045F21C42C5F644
:1057E00002029142019043D0FFE70F980168012027
:1057F00045F23042C5F602029142019038D0FFE7EF
:105800000F980168012045F24442C5F60202914218
:1058100001902DD0FFE70F980168012045F2584212
:10582000C5F602029142019022D0FFE70F9801686D
:10583000012045F26C42C5F602029142019017D058
:10584000FFE70F980168012045F28042C5F6020289
:10585000914201900CD0FFE70F9800684AF66C3136
:10586000CAF2FD710844B0FA80F040090190FFE7E8
:105870000198C007002800F09B82FFE70F9800689E
:1058800000680C900D980F99C96D01F01F01C84078
:105890004007002840F1D780FFE79DF8300040071F
:1058A000002840F1D080FFE70F98C06D00F01F0185
:1058B00004208840089948609DF8310000060028BF
:1058C00018D5FFE79DF83200C00748B1FFE70F98F1
:1058D000806C20B1FFE70F98816C8847FFE708E0F4
:1058E0000F98006C20B1FFE70F98016C8847FFE725
:1058F000FFE7A7E09DF830008006002800F19980BE
:10590000FFE70F9800681021C4F20201884200F0FE
:105910008180FFE70F9800682821C4F202018842C5
:1059200078D0FFE70F9800684021C4F20201884256
:1059300070D0FFE70F9800685821C4F20201884236
:1059400068D0FFE70F9800687021C4F20201884216
:1059500060D0FFE70F9800688821C4F202018842F6
:1059600058D0FFE70F980068A021C4F202018842D6
:1059700050D0FFE70F980068B821C4F202018842B6
:1059800048D0FFE70F98006840F21041C4F20201CE
:1059900088423FD0FFE70F98006840F22841C4F2E8
:1059A0000201884236D0FFE70F98006840F240417C
:1059B000C4F2020188422DD0FFE70F98006840F240
:1059C0005841C4F20201884224D0FFE70F980068D2
:1059D00040F27041C4F2020188421BD0FFE70F98E9
:1059E000006840F28841C4F20201884212D0FFE709
:1059F0000F98006840F2A041C4F20201884209D029
:105A0000FFE70F98006840F2B841C4F202018842F3
:105A100007D1FFE70F980168086820F008000860C8
:105A200006E00F980168086820F004000860FFE7AE
:105A3000FFE70F98006C20B1FFE70F98016C8847D3
:105A4000FFE7FFE7B3E10D980F99C96D01F01F0162
:105A5000C8408007002840F1E180FFE79DF8300052
:105A60008007002840F1DA80FFE70F98C06D00F052
:105A70001F0102208840089948609DF83100000607
:105A8000002818D5FFE79DF83200C00748B9FFE7A6
:105A90000F98406C20B1FFE70F98416C8847FFE7F3
:105AA00008E00F98C06B20B1FFE70F98C16B8847E3
:105AB000FFE7FFE7B1E09DF830008006002800F125
:105AC000A380FFE70F9800681021C4F2020188420A
:105AD00000F08180FFE70F9800682821C4F20201DE
