:020000040800F2
:1000000078680024AD020008B78A0008C58200089D
:10001000B38A00087D0D0008A19A000800000000C6
:10002000000000000000000000000000CD8D00086E
:10003000A51D000800000000BB8A0008CF8D000845
:10004000CB020008CB020008CB020008CB0200085C
:10005000CB020008CB020008A71D0008CB02000855
:10006000CB020008CB020008CB02000819180008D8
:1000700029180008CB020008CB020008CB020008B8
:10008000CB020008CB020008CB020008CB0200081C
:10009000CB020008CB020008CB020008CB0200080C
:1000A000CB020008CB020008CB020008CB020008FC
:1000B000CB020008CB020008D58F0008CB02000855
:1000C000CB020008CB020008CB020008CB020008DC
:1000D000CB020008CB020008CB020008CB020008CC
:1000E000CB020008CB02000800000000CB02000891
:1000F000CB020008CB020008CB020008CB020008AC
:10010000CB020008CB020008CB020008CB0200089B
:10011000CB020008CB020008CB020008CB0200088B
:10012000CB020008CB020008CB020008CB0200087B
:10013000CB020008CB020008CB020008CB0200086B
:1001400000000000000000000000000000000000AF
:10015000CB020008CB020008CB020008CB0200084B
:10016000CB020008CB020008CB020008CB0200083B
:10017000CB020008CB020008CB0200080000000000
:10018000CB020008CB020008CB020008CB0200081B
:10019000CB020008CB020008CB020008CB0200080B
:1001A000CB020008CB020008CB020008CB020008FB
:1001B000CB020008CB020008CB020008CB020008EB
:1001C000CB020008CB020008CB020008CB020008DB
:1001D000CB020008CB020008CB020008CB020008CB
:1001E000CB020008CB020008CB020008CB020008BB
:1001F000CB020008CB020008CB020008CB020008AB
:10020000CB020008CB020008CB020008CB0200089A
:10021000CB020008CB020008CB020008CB0200088A
:10022000CB020008CB020008CB020008000000004F
:10023000CB020008CB02000800000000CB0200083F
:10024000CB020008CB020008CB020008CB0200085A
:10025000CB020008CB020008CB020008CB0200084A
:10026000CB020008CB020008CB020008CB0200083A
:10027000CB020008CB020008CB02000800000000FF
:10028000CB020008CB020008CB02000800000000EF
:1002900000000000CB020008DFF80CD000F066FA86
:1002A0000048004765A50008786800240748804793
:1002B0000748804707480047FEE7FEE7FEE7FEE7FE
:1002C000FEE7FEE7FEE7FEE7FEE7FEE7B91D0008F2
:1002D000AD8E0008990200082DE9F05F0546002068
:1002E00092469B4688460646814640241BE02846A7
:1002F00041464746224600F070F853465A46C01A17
:10030000914110D311461846224600F016F82D1AD6
:1003100067EB01084F4622460120002100F00DF84E
:1003200017EB00094E41201EA4F10104DFDC484612
:1003300031462A464346BDE8F09F202A04DB203A96
:1003400000FA02F1002070479140C2F1200320FA28
:1003500003F3194390407047202A06DBCB17203A5D
:1003600041FA02F043EAE07306E041FA02F3D040BA
:10037000C2F120029140084319467047D2B201E011
:1003800000F8012B491EFBD270470022F6E710B59A
:1003900013460A4604461946FFF7F0FF204610BDF3
:1003A000421C10F8011B0029FBD1801A704730B5A0
:1003B0000B46014600202022012409E021FA02F523
:1003C0009D4205D303FA02F5491B04FA02F52844BD
:1003D000151EA2F10102F1DC30BD202A04DB203A17
:1003E00021FA02F00021704721FA02F3D040C2F155
:1003F000200291400843194670472DE9FE4F804680
:1004000081EA0300C00F0C46009021F0004123F068
:100410000045B8EB0200A94105D24046214690466E
:100420001C460B46024623F00040104347D0270DE0
:10043000C7F30A00C3F30A510290401A0190402802
:100440006BDAC3F3130040F4801B0098924620B18E
:100450000023D2EB030A63EB0B0B01985946C0F162
:1004600040025046FFF769FF06460D465046594682
:10047000019AFFF771FF10EB08006141002487EA41
:10048000115284EAE7731A4340D0009A62B3019A8A
:10049000012A4FEA075215DC001B61EB02014FF005
:1004A000004202EA0752CDE90042001C41F58011EA
:1004B00032462B4600F07BF903B0BDE8F08F404692
:1004C0002146F9E7001B61EB0201001C41F5801396
:1004D00000185B412018A2F5001747EB030140EA22
:1004E000D570B6196D4111E06D084FEA360645EA40
:1004F000C0754FEA0752001B61EB0201001C41F579
:10050000801149084FEA30000019514132462B460C
:1005100003B0BDE8F04F00F03BB900980122400065
:100520000023D0EB020263EBE073009821464FEA10
:10053000E074B8EB000061EB0401E9E783F00043ED
:100540005BE781F0004158E72DE9FE4F81EA0304A3
:1005500004F0004421F0004100944FF0000B23F020
:10056000004350EA01045ED052EA03045BD0C3F3B7
:100570000A54C1F30A552C44A4F2F3340194A0FBAD
:100580000254C1F3130141F48011C3F3130343F484
:10059000801301FB024400FB034E840A970A44EADD
:1005A000815447EA8357A4FB076802958D0A05FB2F
:1005B00007854FEA932C04FB0C542705029D4FEA54
:1005C000065847EA1637B5EB08056EEB070C870EA1
:1005D000920E47EA811742EA8312A7FB0201B6EBAB
:1005E0000B0164EB00042B0D43EA0C335E1844EB63
:1005F0001C50DA465146E7FB0201C5F313044FEAEB
:100600000B3343EA14534FEA0432019C43EA0603D6
:10061000A4F10C040294009CCDE900B400F0C7F8EA
:1006200003B0BDE8F08F00200146F9E72DE9F04D59
:1006300081EA030404F0004B21F0004514464FF01A
:10064000000A23F0004150EA050220D054EA0102DA
:100650001DD0C5F30A570246C5F31303C1F31300B7
:10066000C1F30A5640F4801543F48013A7EB060843
:10067000101BD64608F2FD3873EB050002D308F1D3
:10068000010801E092185B41B8F1000F03DA002085
:100690000146BDE8F08D00204FF4801106468446E7
:1006A0000EE0171B73EB050705D3121B63EB050365
:1006B00006434CEA010C49084FEA300092185B41AE
:1006C00050EA0107EDD152EA030012D082EA040099
:1006D00083EA0501084305D0101BAB4106D2012275
:1006E000002306E000224FF0004302E06FF0010219
:1006F00053101AEB06004CEB085110EB0A0041EBCB
:100700000B01BDE8F04D00F043B8C1F30A52C1F34C
:10071000130140F2FF3341F480119A4202DA0020C3
:100720000146704740F233439A42A2F2334202DC60
:100730005242FFF752BEFFF700BE000030B5041E64
:1007400071F1000404DB4FF00044404264EB01010E
:10075000141E73F1000405DB1C464FF000435242A7
:1007600063EB0403994208BF904230BD064C074D2D
:1007700006E0E06840F0010394E807009847103471
:10078000AC42F6D3FFF78CFD10AC000830AC00088B
:1007900010B5141E73F1000408DA401C41F1000189
:1007A00092185B411A4301D120F0010010BD2DE9E0
:1007B000F04D92469B4611B1B1FA81F202E0B0FAD7
:1007C00080F220329046FFF7B8FD04460F4640EA1B
:1007D0000A0041EA0B0153465A46084313D011461A
:1007E00053EA010019D0C8F140025046FFF7F5FD69
:1007F00005460E46504659464246FFF79EFD0843C1
:1008000005D0012004E020463946BDE8F08D0020E7
:10081000054346EAE0762C4337430A986305E40A29
:10082000A0EB08000022FD0A44EA47540A3002D532
:1008300000200146E9E7010510196941DDE9084595
:1008400000196941BDE8F04DA2E7000070B504460B
:100850004F492068884203D04E492068884208D119
:100860004D48006800F4403008B1012009E0002044
:1008700007E04A48006800F4403008B1012000E079
:100880000020B8B106F06AF905466068B0F5803F0F
:1008900006D0B0F5003F04D0B0F5403F08D105E0E8
:1008A00000BF6068000CB5FBF0F502E0AD0800E0A9
:1008B00000BF2BE04FF40020002104F0B3FC0546FC
:1008C0006068C0F31101F9B980140C281CD2DFE86C
:1008D00000F01B060708090A0B111315171900BFB2
:1008E00000BF00BF00BF00BF6068800C4000B5FBC8
:1008F000F0F50AE02D0908E06D0906E0AD0904E015
:10090000ED0902E02D0A00E000BF00BF03F0C2FFC6
:1009100041F20301884210D82148854206D9206857
:10092000806840F48070216888602FE020688068CB
:1009300020F480702168886028E06D08194885429D
:1009400006D82068806820F44070216888601DE027
:100950001548854208D82068806820F4407040F42B
:1009600080702168886011E01048854208D82068AE
:10097000806820F4407040F400702168886005E0D1
:100980002068806840F440702168886070BD000075
:100990000020024000210240082302400863025860
:1009A000002D3101105E5F0020BCBE0040787D014B
:1009B0002DE9F05F044688464FF00009474620685D
:1009C00007F0A8FC8246206807F08BFC8346BAF14A
:1009D000000F02D1BBF1000F72D02068C06800F098
:1009E000007000B3607D01281DD1207D01281AD13F
:1009F00001270FE0334881450AD3606D40F01000B5
:100A00006065A06D40F00100A0650120BDE8F09F89
:100A100009F1010920680068C0F380100028E9D0BE
:100A2000402021680860022F10D0206807F072FC77
:100A300060B1206807F05AFC40B920688168224AFA
:100A4000114041F01001816000BF00BF012F10D0A4
:100A5000206807F046FC60B1206807F047FC40B909
:100A600020688168184A114041F02001816000BF70
:100A700000BF022F03D0032F03D10C2503E008256C
:100A800001E0042500BF00BF03F00AFF064612E0A4
:100A900003F006FF801B05280DD9206880682840D8
:100AA00048B1606D40F010006065A06D40F001003D
:100AB000A0650120AAE72068806828400028E7D1C7
:100AC0000020A3E700DC0C00C0FFFF7F70B50546E7
:100AD000AC6B606D00F0500098BB606D40F400702E
:100AE00060652068006800F00800A8B1206807F081
:100AF0001BFC10B32068C06800F40050E8B9606DBA
:100B000020F480706065606D00F48050A8B9606D5D
:100B100040F00100606510E02068C06800F003004C
:100B200058B9606D20F480706065606D00F480508D
:100B300018B9606D40F001006065204601F0F2FDDB
:100B40000CE0FFE7606D00F0100018B1204601F0E6
:100B500006FE03E0E06CC16C2846884770BD70B5A6
:100B60000546AC6B606D40F040006065A06D40F0E4
:100B70000400A065204601F0F2FD70BD70B504468A
:100B8000A56B284601F0EAFD70BD000070B5044673
:100B9000206807F0ABFB0646206807F0ACFB98B373
:100BA00096BB2068806800F00D0001280AD12068FB
:100BB00081681A4A1140891C816000BF03202168A6
:100BC000086009E0606D40F010006065A06D40F0C5
:100BD0000100A065012070BD03F062FE054614E02F
:100BE00003F05EFE401B02280FD92068806800F0E9
:100BF000010050B1606D40F010006065A06D40F0E4
:100C00000100A0650120E6E705E02068806800F0AB
:100C100001000028E4D10020DDE70000C0FFFF7FD5
:100C200070B50446206807F066FB002851D12068A3
:100C300080682949084048B1606D40F01000606547
:100C4000A06D40F00100A065012070BD206807F094
:100C50003BFB03F025FE0546204A2168914203D064
:100C60001F4A2168914201D11E4900E01E490846F1
:100C700007F032FB06461A492068884201D117481E
:100C800000E020682168884200D00EBB1AE020688E
:100C900007F031FB10B9206807F016FB03F000FEE7
:100CA000401B02280ED92068006800F0010048B9F6
:100CB000606D40F010006065A06D40F00100A0651F
:100CC0000120C2E72068006800F001000028DED0A3
:100CD00000BF0020B9E700003F0000800020024074
:100CE00000210240002302400063025870B5044610
:100CF0002046FFF755FB85B264232A462146024869
:100D000007F076FA70BD0000C003002470B5ADF5A1
:100D1000006D064600240DEB040014A108F04EFF00
:100D2000204484B2002512E0002D06DD0DEB040006
:100D30000FA108F043FF204484B2725D0DEB040064
:100D40000CA108F03BFF204484B2681C85B2642DDE
:100D5000EADB0DEB040008A108F030FF204484B268
:100D60006846FFF7C3FF0DF5006D70BD793A0000CE
:100D700020000000256400002C00000000BFFEE7FA
:100D80002DE9F0472DED068BE4B004460D46142DF9
:100D900004DA64B0BDEC068BBDE8F087DFED858A30
:100DA000002009E004EB800191ED000A30EE280AF2
:100DB000F0EE408A411C88B2A842F3DB00EE105AE4
:100DC000B8EE400A88EE808A002701203AE0431EF0
:100DD00004EB830393ED000AB4EEC80AF1EE10FAB7
:100DE0000AD804EB800393ED000AB4EEC80AF1EED2
:100DF00010FA01DD012300E000231946431E04EB35
:100E0000830393ED000AB4EEC80AF1EE10FA0ADB90
:100E100004EB800393ED000AB4EEC80AF1EE10FA79
:100E200001D2012300E000231A4601B942B1C82FC4
:100E300006DA3B4607F1010C1FFA8CF72DF8130078
:100E4000411C88B2A842C2DB8FBB94ED001AB0EE01
:100E5000410A94ED001AF0EE410A01201FE004EB74
:100E6000800191ED001AB4EEC01AF1EE10FA05DD22
:100E700004EB800191ED001AB0EE410A04EB800111
:100E800091ED001AB4EEE01AF1EE10FA05D204EB7F
:100E9000800191ED001AF0EE410A411C88B2A8428F
:100EA000DDDB30EE601A444880ED001A71E7FFE7A1
:100EB000AA46504609F056FE0646002003E00121EE
:100EC0003154411C88B2A842F9DB002016E03DF8FD
:100ED00010104A1F3DF810104B1D002A00DA0022A6
:100EE000AB4200DB6B1E114604E04FF0000C06F82D
:100EF00001C0491C9942F8DD411C88B2B842E6DBCA
:100F00009FED2C9ADFED2B9A4FF00008C146002090
:100F100027E0315C01B922E004EB800191ED000A89
:100F2000B4EEC80AF1EE10FA0CDD04EB800191ED8D
:100F3000000A30EE090AB0EE409A08F101011FFAEA
:100F400081F80BE004EB800191ED000A30EE290AF4
:100F5000F0EE409A09F101011FFA81F900BF411C2E
:100F600088B2A842D5DBB8F1000F06DD00EE108A8A
:100F7000F8EE400A89EE200A01E0B0EE480AB0EE31
:100F800040AAB9F1000F06DD00EE109AF8EE400A13
:100F900089EEA00A01E0B0EE480AF0EE40AA3AEE6F
:100FA0006A0A054880ED000A304609F0B3FA00BF2E
:100FB000EFE600000000000030000024F0B5CAB0E9
:100FC00002460C46002013E002EB800191ED000A7E
:100FD0003EA901EB800181ED000A02EB800191ED59
:100FE000000A32A901EB800181ED000A411C88B2A0
:100FF0000C28E9DB00202BE0411C26E03EAE06EB8E
:10100000800696ED000A3EAE06EB8106D6ED004A5C
:10101000B4EEE40AF1EE10FA16D23EAE06EB80060C
:10102000D6ED004AB0EE640A3EAE06EB8106D6ED80
:10103000004A3EAE06EB8006C6ED004A3EAE06EB29
:10104000810686ED000A00BF491C0C29D6DB401C36
:101050000B28D1DB00202BE0411C26E032AE06EB52
:10106000800696ED000A32AE06EB8106D6ED004A08
:10107000B4EEE40AF1EE10FA16DD32AE06EB8006AD
:10108000D6ED004AB0EE640A32AE06EB8106D6ED2C
:10109000004A32AE06EB8006C6ED004A32AE06EBE1
:1010A000810686ED000A00BF491C0C29D6DB401CD6
:1010B0000B28D1DB0C2171E002EB8100D0ED004A5E
:1010C000B0EE640ADDED494AF4EEC04AF1EE10FAE2
:1010D0002DD28DED490A0B2017E03EAE06EB8006BF
:1010E00096ED005AF0EE454A461E3EAF07EB8606E7
:1010F00096ED005A3EAE06EB800686ED005A461E7F
:1011000007EB8606C6ED004A401E00280FDD3EAE06
:1011100006EB8006D6ED004A461E3EAF07EB86067C
:1011200096ED005AF4EEC54AF1EE10FAD5DCDDED8D
:101130003D4AF4EEC04AF1EE10FA2DDD8DED3D0A88
:101140000B2017E032AE06EB800696ED005AF0EE6B
:10115000454A461E32AF07EB860696ED005A32AE80
:1011600006EB800686ED005A461E07EB8606C6EDA6
:10117000004A401E00280FDD32AE06EB8006D6ED99
:10118000004A461E32AF07EB860696ED005AF4EE93
:10119000C54AF1EE10FAD5D3481C81B2A1428BDBCF
:1011A0009FED871A002009E03EA901EB800191ED37
:1011B000000A30EE010AB0EE401A401C0C28F3DBA6
:1011C000B2EE080AC1EE002A002012E03EA901EBAF
:1011D000800191ED000A30EE620AB0EEC00A1AA951
:1011E00001EBC00181ED000A1AA901EBC0014860C2
:1011F000401C0C28EADB00202CE0411C27E01AAE42
:1012000006EBC00696ED000A1AAE06EBC106D6ED57
:10121000004AB4EEE40AF1EE10FA17D21AAE06EB69
:10122000C007C0CFCDE900671AAE06EBC0061AAF03
:1012300007EBC10CDCE9007CC6E9007C1AAE06EBCA
:10124000C106DDE9007CC6E9007C00BF491C0C2911
:10125000D5DB401C0B28D0DB9FED592A0023002052
:101260001AE00026002108E01AAF07EBC1077F68EB
:10127000874201D1012602E0491C0329F4DB00BFAB
:101280004EB93EA901EB800191ED000A30EE020A51
:10129000B0EE402A5B1C401C0C28E2DB00EE103A4A
:1012A000B8EEC00A82EE003ADFED450A002009E000
:1012B00032A901EB800191ED000A30EE200AF0EE38
:1012C000400A401C0C28F3DBB2EE080AC0EE803A5C
:1012D000002012E032A901EB800191ED000A30EE0E
:1012E000630AB0EEC00A02A901EBC00181ED000A59
:1012F00002A901EBC0014860401C0C28EADB002079
:101300002CE0411C27E002AE06EBC00696ED000A79
:1013100002AE06EBC106D6ED004AB4EEE40AF1EEE9
:1013200010FA17D202AE06EBC007C0CFCDE90067B6
:1013300002AE06EBC00602AF07EBC10CDCE9007C95
:10134000C6E9007C02AE06EBC106DDE9007CC6E919
:10135000007C00BF491C0C29D5DB401C0B28D0DBCE
:10136000DFED171A002500201AE00026002108E012
:1013700002AF07EBC1077F68874201D1012602E077
:10138000491C0329F4DB00BF4EB932A901EB8001EF
:1013900091ED000A30EE210AF0EE401A6D1C401C5F
:1013A0000C28E2DB00EE105AB8EEC00A81EE804A4B
:1013B00033EE440A034880ED000A4AB0F0BD000055
:1013C0000000000030000024F0B5CAB002460C4610
:1013D000182C01DA4AB0F0BD002013E002EB8001C6
:1013E00091ED000A3EA901EB800181ED000A02EBBC
:1013F000800191ED000A32A901EB800181ED000A24
:10140000411C88B20C28E9DB00202BE0411C26E0BF
:101410003EAE06EB800696ED000A3EAE06EB810678
:10142000D6ED004AB4EEE40AF1EE10FA16D23EAE62
:1014300006EB8006D6ED004AB0EE640A3EAE06EB3F
:101440008106D6ED004A3EAE06EB8006C6ED004AA8
:101450003EAE06EB810686ED000A00BF491C0C2952
:10146000D6DB401C0B28D1DB00202BE0411C26E002
:1014700032AE06EB800696ED000A32AE06EB810630
:10148000D6ED004AB4EEE40AF1EE10FA16DD32AE03
:1014900006EB8006D6ED004AB0EE640A32AE06EBEB
:1014A0008106D6ED004A32AE06EB8006C6ED004A54
:1014B00032AE06EB810686ED000A00BF491C0C29FE
:1014C000D6DB401C0B28D1DB0C2171E002EB810044
:1014D000D0ED004AB0EE640ADDED494AF4EEC04AB0
:1014E000F1EE10FA2DD28DED490A0B2017E03EAE39
:1014F00006EB800696ED005AF0EE454A461E3EAFDA
:1015000007EB860696ED005A3EAE06EB800686EDAA
:10151000005A461E07EB8606C6ED004A401E00280C
:101520000FDD3EAE06EB8006D6ED004A461E3EAF0E
:1015300007EB860696ED005AF4EEC54AF1EE10FA76
:10154000D5DCDDED3D4AF4EEC04AF1EE10FA2DDDBA
:101550008DED3D0A0B2017E032AE06EB800696EDCE
:10156000005AF0EE454A461E32AF07EB860696ED6E
:10157000005A32AE06EB800686ED005A461E07EB97
:101580008606C6ED004A401E00280FDD32AE06EB8F
:101590008006D6ED004A461E32AF07EB860696ED72
:1015A000005AF4EEC54AF1EE10FAD5D3481C81B2C8
:1015B000A1428BDB9FED871A002009E03EA901EBD9
:1015C000800191ED000A30EE010AB0EE401A401C95
:1015D0000C28F3DBB2EE080AC1EE002A002012E06C
:1015E0003EA901EB800191ED000A30EE620AB0EEF7
:1015F000C00A1AA901EBC00181ED000A1AA901EB8A
:10160000C0014860401C0C28EADB00202CE0411C93
:1016100027E01AAE06EBC00696ED000A1AAE06EBFE
:10162000C106D6ED004AB4EEE40AF1EE10FA17D284
:101630001AAE06EBC007C0CFCDE900671AAE06EBC5
:10164000C0061AAF07EBC10CDCE9007CC6E9007CE0
:101650001AAE06EBC106DDE9007CC6E9007C00BFDE
:10166000491C0C29D5DB401C0B28D0DBDFED591AB7
:10167000002300201AE00026002108E01AAF07EB43
:10168000C1077F68874201D1012602E0491C042975
:10169000F4DB00BF4EB93EA901EB800191ED000AD9
:1016A00030EE210AF0EE401A5B1C401C0C28E2DBF5
:1016B00000EE103AB8EEC00A81EE803A9FED452A5E
:1016C000002009E032A901EB800191ED000A30EE23
:1016D000020AB0EE402A401C0C28F3DBB2EE080AE6
:1016E000C2EE003A002012E032A901EB800191ED38
:1016F000000A30EE630AB0EEC00A02A901EBC00195
:1017000081ED000A02A901EBC0014860401C0C28D1
:10171000EADB00202CE0411C27E002AE06EBC0060D
:1017200096ED000A02AE06EBC106D6ED004AB4EE15
:10173000E40AF1EE10FA17D202AE06EBC007C0CFF2
:10174000CDE9006702AE06EBC00602AF07EBC10CA5
:10175000DCE9007CC6E9007C02AE06EBC106DDE9EF
:10176000007CC6E9007C00BF491C0C29D5DB401C6D
:101770000B28D0DBDFED170A002500201AE0002639
:10178000002108E002AF07EBC1077F68874201D163
:10179000012602E0491C0429F4DB00BF4EB932A93E
:1017A00001EB800191ED000A30EE200AF0EE400AD4
:1017B0006D1C401C0C28E2DB00EE105AB8EEC00A8B
:1017C00080EE804A33EE440A034880ED000A00BFF1
:1017D00000E60000000000003000002470B505465F
:1017E0000C460C4806F034F90A480068856200BFD0
:1017F00008480068C4620748C46000BF002005496B
:10180000096848620121034806F0F6F9014806F02C
:1018100071F870BD4802002410B5024801F0F2FCD6
:1018200010BD00000C01002410B5024801F0EAFCD4
:1018300010BD0000840100240146374A0868904228
:1018400049D0354A18320868904244D0324A303282
:10185000086890423FD0304A4832086890423AD0F7
:101860002D4A60320868904235D02B4A7832086899
:10187000904230D0284A9032086890422BD0264AB5
:10188000A8320868904226D0244A0868904222D0A4
:10189000224A1832086890421DD0204A3032086827
:1018A000904218D01D4A48320868904213D01B4A13
:1018B0006032086890420ED0184A78320868904228
:1018C00009D0164A90320868904204D0134AA832D0
:1018D0000868904201D1012000E00020B0B10A78F0
:1018E000103A1823B2FBF3F000F007020C4B9A5C9D
:1018F000CA65032805D90A686FF30902121D8A65B3
:1019000003E00A686FF309028A6503E0086820F0C3
:10191000FF008865886D7047100002401004024087
:10192000D0AB000810B502682B4C0368A34222D04C
:10193000294C14340368A3421DD0274C2834036873
:10194000A34218D0244C3C340368A34213D0224C49
:1019500050340368A3420ED01F4C64340368A34282
:1019600009D01D4C78340368A34204D01A4C8C343F
:101970000368A34201D1012300E000238BB1037867
:10198000083B1424B3FBF4F1144B03EB810303660F
:10199000124B8033436601F01F040123A34083668A
:1019A00018E00378103B1824B3FBF4F10C4B9A4277
:1019B00004D80B4BA83B9A4200D30831094B03EBE8
:1019C00081030366074B8033436601F01F04012344
:1019D000A340836610BD0000085402580058025806
:1019E000B8040240000802400179A9B3082940D890
:1019F000204B02689A4222D01E4B143302689A424E
:101A00001DD01C4B283302689A4218D0194B3C3326
:101A100002689A4213D0174B503302689A420ED094
:101A2000144B643302689A4209D0124B783302682F
:101A30009A4204D00F4B8C3302689A4201D10122A2
:101A400000E000224AB14A1E0B4B03EB8202C26641
:101A5000094A4032026708E00BE04A1E074B03EBDD
:101A60008202C266054A403202674A1E0123934041
:101A70004367704708540258005902580009024051
:101A8000014600208A69D2B98A6A32B1012A0DD092
:101A9000022A03D0032A10D10EE000BFCA6A02F066
:101AA0008072B2F1807F00D1012007E0CA6AB2F1F2
:101AB000C07F00D1012001E000E000BF36E08A696C
:101AC000B2F5005F1BD18A6A32B1012A07D0022A1F
:101AD00003D0032A11D10AE000BF01200EE0CA6A38
:101AE00002F08072B2F1807F00D1012006E0CA6A64
:101AF000B2F1C07F00D1012000E000BF16E08A6A89
:101B000032B1012A05D0022A04D0032A0CD103E005
:101B100000BF00BF012008E0CA6A02F08072B2F183
:101B2000807F00D1012000E000BF00BF70470000AF
:101B3000F0B5856D846D984F0668BE4270D0964FA3
:101B400018370668BE426BD0934F30370668BE42E6
:101B500066D0914F48370668BE4261D08E4F6037DD
:101B60000668BE425CD08C4F78370668BE4257D0BC
:101B7000894F90370668BE4252D0874FA837066813
:101B8000BE424DD0854F0668BE4249D0834F1837BC
:101B90000668BE4244D0814F30370668BE423FD00F
:101BA0007E4F48370668BE423AD07C4F60370668A1
:101BB000BE4235D0794F78370668BE4230D0774F75
:101BC00090370668BE422BD0744FA8370668BE42D5
:101BD00026D0734F0668BE4222D0714F1437066874
:101BE000BE421DD06E4F28370668BE4218D06C4FDB
:101BF0003C370668BE4213D0694F50370668BE4274
:101C00000ED0674F64370668BE4209D0644F7837FC
:101C10000668BE4204D0624F8C370668BE4201D1CE
:101C2000012600E000263EB1D0E919767E60C66E3E
:101C300016B1D0E91C767E60574F0668BE4249D087
:101C4000554F18370668BE4244D0534F30370668A8
:101C5000BE423FD0504F48370668BE423AD04E4F42
:101C600060370668BE4235D04B4F78370668BE42B3
:101C700030D0494F90370668BE422BD0464FA83728
:101C80000668BE4226D0454F0668BE4222D0434F6A
:101C900018370668BE421DD0404F30370668BE4236
:101CA00018D03E4F48370668BE4213D03B4F6037CE
:101CB0000668BE420ED0394F78370668BE4209D05A
:101CC000364F90370668BE4204D0344FA8370668B6
:101CD000BE4201D1012600E00026DEB190F85C6032
:101CE00006F01F073F26BE40AE600668366826F441
:101CF000802607683E60066873608668402E04D1BF
:101D00000668B2600668F16044E00668B160066883
:101D1000F2603FE0224F0668BE4222D0204F1437C7
:101D20000668BE421DD01E4F28370668BE4218D036
:101D30001B4F3C370668BE4213D0194F5037066818
:101D4000BE420ED0164F64370668BE4209D0144F0B
:101D500078370668BE4204D0114F8C370668BE4201
:101D600001D1012600E00026A6B190F85C6006F0E3
:101D70001F070126BE406660066873608668402EB5
:101D800004D10668B2600668F16003E00668B160DD
:101D90000668F260F0BD000010000240100402402E
:101DA00008540258704710B5012002F051FC10BDD4
:101DB00072B600BFFEE700000748006840F002006E
:101DC0000549086000BF04480838006800F4005066
:101DD0000028F8D0704700000C48025810B5E4B055
:101DE000014609B964B010BD642910D100200BE090
:101DF0007B4A02EB800292ED001A6A4602EB8002F7
:101E000082ED001A421C90B26428F1DB4FE04A1EBA
:101E100001EE102AB8EEC11A9FED722A81EE023A45
:101E2000F0EE432A00203FE002EE100AB8EE422A0C
:101E300022EE222AB0EE421ABCEEC12A12EE103A6D
:101E40009AB202EE102AB8EE422A31EE422AB0EEE1
:101E5000423A4B1E93420ADC614C04EB830393ED40
:101E6000002A6B4603EB800383ED002A1AE05C4BEB
:101E700003EB820393ED004AB0EE442A584C531C06
:101E800004EB830393ED004AF0EE443A73EEC24A4A
:101E9000B0EE424A03EE244A6B4603EB800383ED27
:101EA000004A00BF421C90B26428BDDB00BFDFEDDA
:101EB0004E0A00200AE06A4602EB800292ED001A08
:101EC00031EE201AF0EE410A421C90B26428F2DB97
:101ED0009FED461AC0EE811A00200DE06A4602EB23
:101EE000800292ED001A31EE611A6A4602EB80021E
:101EF00082ED001A421C90B26428EFDB9DED000ACF
:101F0000012012E06A4602EB800292ED001AB4EE64
:101F1000C01AF1EE10FA06DD6A4602EB800292ED7D
:101F2000001AB0EE410A421C90B26428EADBB5EE1A
:101F3000C00AF1EE10FA11D000200DE06A4602EB63
:101F4000800292ED001A81EE002A6A4602EB8002BE
:101F500082ED002A421C90B26428EFDB00200FE0E3
:101F60006A4602EB800292ED001A9FED212A21EED3
:101F7000021A6A4602EB800282ED001A421C90B2FD
:101F80006428EDDB002026E06A4602EB800292ED39
:101F9000002ADFED182A32EE222AB0EE421AB5EE00
:101FA000C01AF1EE10FA03D29FED0F2AB0EE421ADA
:101FB0009FED112AB4EEC21AF1EE10FA03DD9FED87
:101FC0000E2AB0EE421ABCEEC12A12EE102A0B4BBA
:101FD0001A54421C90B26428D6DB00BF02E700000E
:101FE000384300240000C642000000000000C84240
:101FF0000000F0420000004300007F4394230024CF
:102000002DE9F04399B004460E464FF000083068C1
:1020100000B100BF00BF94F85000012803D1022096
:1020200019B0BDE8F083012084F8500000BF002003
:102030001590169046492068884202D14548009084
:1020400001E000200090009850B9606D40F0200041
:10205000606500BF002084F8500000BF0120DFE76A
:10206000009806F05CF90746206806F058F9002849
:1020700061D1002F5FD136492068884203D03549AD
:102080002068884201D1344800E034480546306871
:1020900058B3A86820F4404071680843A8602C49F0
:1020A0002068884203D02B492068884201D12A4801
:1020B00000E02A482849884209D1254806F020F93D
:1020C0008146244806F01CF949EA000002E0244851
:1020D00006F016F970BBB16830680843A96840F68D
:1020E0001F7291430843A8602BE0A86820F4404089
:1020F000A86017492068884203D0164920688842A2
:1021000001D1154800E015481349884209D110480B
:1021100006F0F6F881460F4806F0F2F849EA0000AA
:1021200002E00F4806F0ECF820B9A86840F61F71ED
:102130008843A86005E0606D40F0200060654FF0C6
:10214000010800BF002084F8500000BF404667E748
:102150000020024000210240002302400063025898
:10216000006002582DE9F84F04460D464FF0000A72
:102170000020009094F83800012800D100E000BF52
:10218000F8492068884200D100BFF749E8688842D2
:1021900000D00EE0F5492068884200D100BFF44924
:1021A0002068884200D100BFEE492068884200D1F3
:1021B00000BF00BF94F85000012802D10220BDE802
:1021C000F88F012084F8500000BF206806F0A2F8C4
:1021D000002870D1286800F00040A8B92068C169C3
:1021E0002868C0F3130018B92868C0F3846004E0BD
:1021F000286890FAA0F0B0FA80F000F01F020120E9
:10220000904001432068C1612168D5E9002001F1B7
:10221000300CC0F3012B0CEB8B03D3F800C000F0A3
:102220001F0E4FF01F0B0BFA0EFB2CEA0B0C00F0ED
:102230001F0BC2F3846E0EFA0BFE4CEA0E0CC3F8B1
:1022400000C000BF206806F065F88146206806F0EF
:1022500048F88046B9F1000F78D1B8F1000FFBD1F2
:102260002268AB68286802F1140CC0F3406B0CEBD9
:102270008B01D1F800C0C0F3045E4FF0070B0BFADE
:102280000EFB2CEA0B0CC0F3045B03FA0BFB4CEACD
:102290000B0CC1F800C000BFB648006800F07040E9
:1022A000B0F1805F08D168692168C968C1F3820113
:1022B0004900884015E014E22068C06800F0100072
:1022C00038B968692168C968C1F38201490088404A
:1022D00007E068692168C96801F0100189084900B0
:1022E00088400746286904283FD020682A68296961
:1022F00000F1600C0CEB8103D3F800C00CF0004C33
:1023000002F0F84B4BEA070B4CEA0B0CC3F800C089
:1023100000BF20686A7E2969012A01D1D20700E046
:102320000022134600F1600C0CEB8102D2F800C0D1
:102330002CF0004C4CEA030CC2F800C000BF20682F
:102340002B7E2969012B02D1DB0201E045E000234D
:102350001A46036923F4F04301F01F0C02FA0CFC47
:1023600043EA0C03036100BF37E02068006E00F011
:10237000F8402978B0EB816F05D12068006E20F01D
:102380000040216808662068406E00F0F840297817
:10239000B0EB816F05D12068406E20F000402168CD
:1023A00048662068806E00F0F8402978B0EB816FB5
:1023B00005D12068806E20F0004021688866206882
:1023C000C06E00F0F8402978B0EB816F05D120682D
:1023D000C06E20F000402168C866206805F08BFFC1
:1023E000002871D12068EA682968D0F8C030C1F3AC
:1023F000130C23EA0C0302F0180BDFF87CC12CFA53
:102400000BFC0CEA010C43EA0C03C0F8C03000BF1F
:102410005549E868884270D1544B206898423DD1B4
:10242000564B2A689A4201D1012276E0544B2A6821
:102430009A4201D1534A70E0534B2A689A4201D123
:10244000524A6AE0524B2A689A4201D1514A64E0EA
:10245000514B2A689A4201D1504A5EE0504B2A689B
:102460009A4201D14F4A58E04E4B2A689A4201D114
:102470004D4A52E04C4B2A689A4201D14B4A4CE0FB
:102480004B4B2A689A4201D14A4A46E04A4B2A6895
:102490009A4201D1494A40E000223EE0344B226892
:1024A0009A4239D1354B2A689A4201D1012234E04F
:1024B000334B2A689A4201D1324A2EE0324B2A68C5
:1024C0009A4202D1314A28E0B3E0314B2A689A425D
:1024D00001D1304A21E0304B2A689A4201D12F4A7B
:1024E0001BE02F4B2A689A4201D12E4A15E02D4B52
:1024F0002A689A4202D12C4A0FE023E02A4B2A682C
:102500009A4201D1294A08E02B4B2A689A4201D10C
:102510002A4A02E0002200E000221146C369C1F30A
:10252000130212B9C1F3846203E091FAA1F2B2FA84
:1025300082F202F01F0C012202FA0CF21343C36173
:1025400000BF00BF286800F00040002871D0074A93
:102550002168914203D0064A2168914232D118493C
:1025600031E00000006002580000FF4700200240F8
:10257000002102400010005CFFFF0F000200300449
:1025800004006008400020190800900C8000501DD5
:102590001000C010000180212000F0140002B025BE
:1025A0000004002A0008302E00106032002090360F
:1025B00000002143000052470000844B0000B84F48
:1025C000002302404D490846816801F0E07600BFD3
:1025D0004B492068884203D04A492068884201D18B
:1025E000494800E045484849884209D1444805F037
:1025F00082FE8346434805F07EFE4BEA000002E07F
:10260000424805F078FEE8BB41492868884227D156
:1026100006F4000020BB3D492068884267D1384B52
:1026200022689A4203D0374B22689A4202D1364A36
:1026300001E032E0314A104646F4000105F086FE22
:10264000344800683449B0FBF1F0401C4000009071
:1026500002E00098401E009000980028F9D146E062
:102660002E492868884219D106F08070B0B92749F0
:10267000206888423BD1224B22689A4205D0214BE8
:10268000226800E026E09A4201D11F4A00E01B4A7E
:10269000104646F0807105F059FE28E02049286870
:1026A000884224D106F4800008BB1849206888427B
:1026B0001DD1134B22689A4203D0124B22689A42D2
:1026C00001D1114A00E00D4A104646F4800105F0A0
:1026D0003DFE0CE0606D40F0200060654FF0010AA7
:1026E00005E0606D40F0200060654FF0010A00BF1A
:1026F000002084F8500000BF504660E50063025897
:1027000000200240002102400023024000600258E5
:10271000000084CB18000024400D0300000052C7C5
:102720000000B8CF10B504460848844205D100F037
:10273000B7FA01200649087007E00648844204D130
:1027400000F0AEFA01200449087010BD44000024D6
:1027500000000024A80000240100002470477047F6
:102760002DE9F84F04464FF000090020009014B9FD
:102770000120BDE8F88FE06818B1207F012800D162
:1027800000BF606D30B9204600F030F90020A06530
:1027900084F8500020688168C1F3407131B120682D
:1027A0008168874A1140816000BF00BF206805F042
:1027B000ACFDA8B920688168824A114041F080517F
:1027C000816000BF804800688049B0FBF1F0401C88
:1027D000009002E00098401E009000980028F9D177
:1027E000206805F092FD48B9606D40F0100060650A
:1027F000A06D40F00100A0654FF00109206805F0D0
:1028000089FD0646606D00F0100000287ED1002E84
:10281000FCD1606D20F4807040F00200606520689B
:1028200005F069FD78BB6A492068884203D0694990
:102830002068884201D1684800E0684866498842BB
:1028400009D1634805F057FD8246624805F053FD03
:102850004AEA000002E0624805F04DFD98B95C4B81
:1028600022689A4203D05B4B22689A4201D15A4AAD
:1028700000E05A4A10466168826822F47C120A43DA
:10288000826000BF00BF02F005F841F203018842F8
:102890000ED9A06810280BD1607D216B41EA403031
:1028A000A168084340F00C01207F41EA004508E0A0
:1028B000607D216B41EA4030A1680843217F40EAF6
:1028C0000145207F012803D1208C401E45EA404568
:1028D000606A28B1A08C00F47870A16A08430543AF
:1028E0002068C0683F49084028432168C8602068C4
:1028F00005F010FD8046206805F0F3FC0746B8F1AE
:10290000000F3BD1D7BB207DE16A00E050E041EAF7
:1029100080352068C06844F2030188432843216859
:10292000C86094F83800012817D1606A08B1A06A1D
:1029300000B900BFA08F401E012141EA0041206C78
:102940000843616C0843A16C084321680969264A61
:10295000114008432168086105E02068006920F003
:102960000100216808612068006920F07040616BF7
:102970000843216808612046FDF768FFE0680128E8
:1029800009D12068006B20F00F00A169491E08439F
:102990002168086305E02068006B20F00F002168C3
:1029A0000863606D20F0020040F00100606505E002
:1029B000606D40F0100060654FF001094846D8E6B0
:1029C000C0FFFF5FC0FFFF7F18000024400D030021
:1029D0000020024000210240002302400063025810
:1029E0000060025803C0F0FF1EF800FC10B586B06E
:1029F0000446142101A8FDF7C8FC54492068884208
:102A00004ED153480068401C514908600846006890
:102A100001280DD100BF4F48006840F020004D490B
:102A200008600846006800F02000009000BF00BF6A
:102A300000BF48480830006840F0010045490831AF
:102A400008600846006800F00100009000BF00BF69
:102A500001200190032002900020039001A93E482C
:102A600001F004FE3D483E4908600920486000210D
:102A70003B488160C1604FF4806101614900416160
:102A8000890081610021C1610162416201F036F972
:102A900008B1FFF78DF900BF3148E064846353E06B
:102AA0003049206888424FD129480068401C284995
:102AB00008600846006801280DD100BF254800685D
:102AC00040F02000234908600846006800F020001C
:102AD000009000BF00BF00BF1E480830006840F0F3
:102AE00001001C49083108600846006800F0010038
:102AF000009000BF00BF042001900320029000203E
:102B0000039001A9144801F0B1FD1448183016498A
:102B100008600A204860002113488160C1604FF4BA
:102B20008061016149004161890081610021C161C9
:102B30000162416201F0E2F808B1FFF739F900BF24
:102B40000948E064846300BF06B010BD0020024065
:102B500008000024D8440258000002581000024027
:102B60000C01002400210240840100242DE9F041E1
:102B700004460F469046434A2168914203D0424A98
:102B80002168914201D1414900E04149084605F0E0
:102B9000A3FB0646206805F0BDFB00286ED100BFF0
:102BA00094F85000012802D10220BDE8F0810120F4
:102BB00084F8500000BF1EB1052E01D0092E57D158
:102BC0002046FEF72DF80546002D4CD1606D40F6ED
:102BD0000161884340F4807060652B492068884219
:102BE00001D1284800E020682168884200D01EB941
:102BF000606D20F480106065606D00F4805020B13D
:102C0000A06D20F00600A06501E00020A06521482D
:102C1000E16CC8632048E16C08642048E16CC8643A
:102C20001C202168086000BF002084F8500000BF0D
:102C30002068406840F0100021684860E16A206820
:102C4000C26822F003020A43C26000BF226802F198
:102C5000400143463A46E06C01F0E0FA0546206840
:102C600005F06CFB0BE000BF002084F8500006E08C
:102C7000012500BF002084F8500000E0022528460E
:102C800093E70000002002400021024000230240A0
:102C900000630258CD0A00087D0B00085F0B000896
:102CA00070B5044600BF94F85000012801D10220FD
:102CB00070BD012084F8500000BF03212046FDF7BD
:102CC00077FE05464DBB2068C06820F003002168F0
:102CD000C860E06C90F83500022808D1E06C00F084
:102CE00023F805461DB1606D40F040006065206826
:102CF000406820F010002168486025B92046FDF7A3
:102D000045FF054602E02046FDF740FF2DB9606D06
:102D100020F4885040F00100606500BF002084F876
:102D2000500000BF2846C3E72DE9F041044601F0FA
:102D3000B7FD804614B90120BDE8F08194F8350054
:102D4000022808D08020606500BF002084F834008D
:102D500000BF0120F0E7FE492068884249D0FC49C5
:102D600018312068884244D0F949303120688842BF
:102D70003FD0F7494831206888423AD0F449603161
:102D80002068884235D0F24978312068884230D0B6
:102D9000EF499031206888422BD0ED49A831206856
:102DA000884226D0EB492068884222D0E949183170
:102DB000206888421DD0E74930312068884218D009
:102DC000E44948312068884213D0E24960312068E4
:102DD00088420ED0DF4978312068884209D0DD4929
:102DE00090312068884204D0DA49A83120688842AE
:102DF00006D12068006820F001002168086005E025
:102E00002068006820F0010021680860D04920682F
:102E1000884249D0CE4918312068884244D0CC49F4
:102E20003031206888423FD0C94948312068884203
:102E30003AD0C74960312068884235D0C4497831DA
:102E40002068884230D0C2499031206888422BD017
:102E5000BF49A8312068884226D0BE4920688842F0
:102E600022D0BC491831206888421DD0B949303180
:102E70002068884218D0B74948312068884213D06A
:102E8000B4496031206888420ED0B2497831206858
:102E9000884209D0AF4990312068884204D0AD49BA
:102EA000A8312068884201D1012000E0002068B1EB
:102EB0002068006820F01E002168086020684069D2
:102EC00020F0800021684861256806E020680068DD
:102ED00020F00E002168086025689D49206888421E
:102EE00070D09B491831206888426BD098493031A6
:102EF0002068884266D0964948312068884261D06F
:102F000093496031206888425CD0914978312068CB
:102F1000884257D08E4990312068884252D08C49DF
:102F2000A831206888424DD08A492068884249D01B
:102F3000884918312068884244D086493031206859
:102F400088423FD083494831206888423AD081493D
:102F500060312068884235D07E49783120688842C7
:102F600030D07C499031206888422BD07949A831F3
:102F70002068884226D078492068884222D0764945
:102F80001431206888421DD0734928312068884256
:102F900018D071493C312068884213D06E495031B5
:102FA000206888420ED06C4964312068884209D07C
:102FB000694978312068884204D067498C3120689B
:102FC000884201D1012000E0002028B1206E006875
:102FD00020F48070216E086011E001F061FCA0EB2C
:102FE000080005280BD920206065032084F83500EF
:102FF00000BF002084F8340000BF01209CE6286850
:1030000000F001000028E8D151492068884249D0E9
:103010004F4918312068884244D04D4930312068EA
:1030200088423FD04A494831206888423AD04849CE
:1030300060312068884235D045497831206888421F
:1030400030D043499031206888422BD04049A83184
:103050002068884226D03F492068884222D03D49D6
:103060001831206888421DD03A49303120688842A2
:1030700018D0384948312068884213D0354960312A
:10308000206888420ED0334978312068884209D0C0
:10309000304990312068884204D02E49A8312068F8
:1030A000884201D1012000E0002040B1A66D94F8D3
:1030B0005C0000F01F013F208840B06007E0A76D72
:1030C00094F85C0000F01F010120884078602049DE
:1030D0002068884276D01E4918312068884271D015
:1030E0001B493031206888426CD01949483120682A
:1030F000884267D0164960312068884262D01449FE
:103100007831206888425DD011499031206888422A
:1031100058D00F49A8312068884253D00D49206803
:1031200088424FD00B491831206888424AD009495B
:1031300030312068884245D00649483120688842AD
:1031400040D004496031206888423BD0014905E005
:1031500010000240100402400854025878312068E0
:1031600088422FD02549206888422BD02349183126
:103170002068884226D022492068884222D02049EF
:103180001431206888421DD01D49283120688842AA
:1031900018D01B493C312068884213D0184950315F
:1031A000206888420ED0164964312068884209D0D0
:1031B000134978312068884204D011498C31206845
:1031C000884201D1012000E0002068B1D4E9191043
:1031D0004860E06E40B1E06E006820F48070E16EFF
:1031E0000860D4E91C104860012084F8350000BF55
:1031F000002084F8340000BF00BF9DE5A004024019
:10320000085402582DE9F84F044600200090FE486B
:1032100000684FF41651B0FBF1FAA66DD4F858804F
:103220003768D8F80090F9492068884249D0F749B2
:1032300018312068884244D0F449303120688842EF
:103240003FD0F2494831206888423AD0EF49603196
:103250002068884235D0ED4978312068884230D0E6
:10326000EA499031206888422BD0E849A83120688B
:10327000884226D0E6492068884222D0E4491831A5
:10328000206888421DD0E24930312068884218D039
:10329000DF4948312068884213D0DD496031206819
:1032A00088420ED0DA4978312068884209D0D8495E
:1032B00090312068884204D0D549A83120688842DE
:1032C00001D1012000E0002000287DD094F85C00AE
:1032D00000F01F01082088403840002868D0CB4902
:1032E0002068884249D0C94918312068884244D0B2
:1032F000C6493031206888423FD0C44948312068EF
:1033000088423AD0C14960312068884235D0BF49EF
:1033100078312068884230D0BC499031206888429A
:103320002BD0BA49A8312068884226D0B8492068F5
:10333000884222D0B6491831206888421DD0B4494D
:1033400030312068884218D0B1494831206888421D
:1033500013D0AF496031206888420ED0AC49783133
:103360002068884209D0AA4990312068884204D058
:10337000A749A8312068884204D12068006800F07D
:10338000040003E02068006800F0080080B12068B5
:10339000006820F004002168086094F85C0000F0E8
:1033A0001F0108208840B060606D40F0010060653A
:1033B00094F85C0000F01F01012088403840E8B319
:1033C00092492068884200E0B7E24BD08F4918311B
:1033D0002068884246D08D4930312068884241D0EB
:1033E0008A494831206888423CD088496031206849
:1033F000884237D0854978312068884232D0834965
:103400009031206888422DD08049A83120688842B8
:1034100028D07F492068884224D07D49183120680F
:1034200088421FD07A493031206888421AD07849C2
:1034300048312068884215D0754900E026E06031A7
:10344000206888420ED0724978312068884209D0BD
:103450006F4990312068884204D06D49A8312068B6
:10346000884204D12068406900F0800002E02068B2
:103470000068002050B194F85C0000F01F010120AA
:103480008840B060606D40F00200606594F85C00B8
:1034900000F01F01042088403840E8B35B492068F1
:1034A00088424BD0594918312068884246D0574944
:1034B00030312068884241D05449483120688842E0
:1034C0003CD0524960312068884237D04F4978312A
:1034D0002068884232D04D499031206888422DD0F2
:1034E0004A49A8312068884228D049492068884242
:1034F00024D047491831206888421FD044493031D0
:10350000206888421AD0424948312068884215D044
:103510003F496031206800E024E088420ED03C49F9
:1035200078312068884209D0394990312068884232
:1035300004D03749A8312068884204D12068006847
:1035400000F0020002E020680068002050B194F80A
:103550005C0000F01F0104208840B060606D40F006
:103560000400606594F85C0000F01F0110208840A2
:103570003840E8B325492068884251D023491831A2
:10358000206888424CD0214930312068884247D099
:103590001E4948312068884242D01C496031206869
:1035A00088423DD0194978312068884238D017497F
:1035B00090312068884233D01449A831206888426D
:1035C0002ED01349206888422AD01149183120682A
:1035D000884225D00E4930312068884220D00C49DD
:1035E0004831206888421BD009496031206800E0DA
:1035F0004DE0884214D006497831206888420FD0C7
:1036000003499031206805E01800002410000240B2
:1036100010040240884203D0FE492068884204D149
:103620002068006800F0080003E02068006800F0EF
:10363000040060B394F85C0000F01F011020884083
:10364000B0602068006800F4802080B120680068C5
:1036500000F4002028B9206CC8B12046216C8847AE
:1036600015E0A06C98B12046A16C88470FE0206857
:10367000006800F4807028B92068006820F0080015
:1036800021680860206C10B12046216C884794F8AE
:103690005C0000F01F0120208840384000287DD0C9
:1036A000DD492068884249D0DB49183120688842CA
:1036B00044D0D9493031206888423FD0D64948317A
:1036C000206888423AD0D44960312068884235D099
:1036D000D14978312068884230D0CF499031206874
:1036E00088422BD0CC49A8312068884226D0C949CD
:1036F000A8392068884221D0C6499039206888427C
:103700001CD0C44978392068884217D0C149603933
:103710002068884212D0BF494839206888420DD0BD
:10372000BC4930392068884208D0BA491839206825
:10373000884203D0B7492068884204D120680068D5
:1037400000F0100003E02068006800F0020028B3D9
:1037500094F85C0000F01F0120208840B06094F8CD
:10376000350004282DD12068006820F0160021685B
:1037700008602068406920F0800021684861206C62
:1037800008B9A06C28B12068006820F00800216802
:10379000086094F85C0000F01F0100E03FE03F206B
:1037A0008840B060012084F8350000BF002084F814
:1037B000340000BF206D10B12046216D8847BDE860
:1037C000F88F2068006800F4802080B120680068CD
:1037D00000F4002028B1606C08B32046616C884773
:1037E0001DE0E06BD8B12046E16B884717E0206808
:1037F000006800F4807068B92068006820F010004C
:1038000021680860012084F8350000BF002084F89A
:10381000340000BFE06B10B12046E16B8847606D5B
:1038200000287AD0606D00F00100E8B3042084F82D
:1038300035007949206888424BD077491831206893
:10384000884246D0744930312068884241D072495C
:103850004831206888423CD06F49603120688842F6
:1038600037D06D4978312068884232D06A4990312A
:10387000206888422DD06849A8312068884228D025
:103880006449A8392068884223D062499039206869
:1038900088421ED05F4978392068884219D05D4936
:1038A00060392068884200E040E012D05949483928
:1038B000206888420DD0574930392068884208D0A6
:1038C000544918392068884203D0524920688842F8
:1038D00006D12068006820F001002168086005E03A
:1038E0002068006820F001002168086000BF00988F
:1038F000401C0090504500D905E02068006800F0A9
:1039000001000028F3D100BF2068006800F001002A
:1039100020B1032084F8350003E00DE0012084F895
:10392000350000BF002084F8340000BFE06C0028A0
:1039300002D02046E16C8847D9E1384920688842A6
:1039400022D036491431206888421DD033492831AD
:103950002068884218D031493C312068884213D011
:103960002E495031206888420ED02C49643120689D
:10397000884209D0294978312068884204D02749F3
:103980008C312068884201D1012000E0002000280D
:10399000D2D02068056894F85C0000F01F01042074
:1039A000884000EA0900D8B305F00400C0B394F8D9
:1039B0005C0000F01F0104208840C8F8040005F4F2
:1039C000004080B105F4803030B1A06C0028B3D045
:1039D0002046A16C88478AE1206C0028ACD02046A4
:1039E000216C884783E105F02000E8BB0A49206884
:1039F000884253D008491831206888424ED0064981
:103A000030312068884249D00349483120688842D3
:103A100044D006E0B80402401000024008540258A6
:103A20004FE0B44960312068884237D0B1497831DD
:103A30002068884232D0AF499031206888422DD02A
:103A4000AC49A8312068884228D0AB492068884218
:103A500024D0A9491831206888421FD0A6493031A6
:103A6000206888421AD000E025E0A3494831206848
:103A7000884213D0A0496031206888420ED09E4908
:103A800078312068884209D09B499031206888426B
:103A900004D09949A8312068884206D1206800687E
:103AA00020F008002168086005E02068006820F028
:103AB000040021680860206C10B32046216C884700
:103AC00015E194F85C0000F01F010220884000EA34
:103AD0000900E8B305F00200D0B394F85C0000F0F0
:103AE0001F0102208840C8F8040005F4004070B1AE
:103AF00005F4803028B9606C10B12046616C8847AD
:103B0000F5E0E06BF0B32046E16B8847EFE005F0AD
:103B10002000C0BB7749206888424ED075491831D3
:103B20002068884249D0734930312068884244D0A7
:103B300070494831206888423FD06E496031206822
:103B400088423AD06B4978312068884235D000E00D
:103B50004EE068499031206888422ED06549A831EE
:103B60002068884229D064492068884225D062496B
:103B700018312068884220D05F493031206888425F
:103B80001BD001E06EE02DE05B494831206888429F
:103B900013D059496031206888420ED05649783197
:103BA0002068884209D0544990312068884204D066
:103BB0005149A8312068884206D12068006820F069
:103BC00014002168086005E02068006820F00A0001
:103BD00021680860012084F8350000BF002084F8C7
:103BE000340000BFE06BE8B32046E16B88477EE01D
:103BF00094F85C0000F01F010820884000EA0900EA
:103C000080B305F0080068B33A49206888424BD079
:103C1000384918312068884246D03649303120680A
:103C2000884241D033494831206888423CD03149EC
:103C300060312068884237D02E4978312068884228
:103C400032D02C499031206888422DD02949A831A2
:103C50002068884228D028492068884224D02649F4
:103C6000183100E043E0206888421DD022493031FD
:103C70002068884218D0204948312068884213D0F3
:103C80001D496031206888420ED01B497831206878
:103C9000884209D0184990312068884204D01649DA
:103CA000A8312068884206D12068006820F01C00F6
:103CB0002168086005E02068006820F00E00216897
:103CC000086094F85C0000F01F0101208840C8F8EB
:103CD00004000120606584F8350000BF002084F8EE
:103CE000340000BFE06C10B12046E16C884700BF93
:103CF00065E5000010000240100402402DE9F0418B
:103D0000044600F0CDFD804614B90120BDE8F081E5
:103D1000FE492068884249D0FC4918312068884211
:103D200044D0FA493031206888423FD0F7494831C1
:103D3000206888423AD0F54960312068884235D001
:103D4000F24978312068884230D0F04990312068BB
:103D500088422BD0ED49A8312068884226D0EC4912
:103D60002068884222D0EA491831206888421DD054
:103D7000E74930312068884218D0E5494831206849
:103D8000884213D0E2496031206888420ED0E04971
:103D900078312068884209D0DD4990312068884216
:103DA00004D0DB49A8312068884201D1012000E01D
:103DB0000020002873D0606A00B100BF022084F8A0
:103DC000350000BF002084F8340000BFCF492068D0
:103DD000884249D0CD4918312068884244D0CB4927
:103DE0003031206888423FD0C84948312068884235
:103DF0003AD0C64960312068884235D0C34978310D
:103E00002068884230D0C1499031206888422BD048
:103E1000BE49A8312068884226D0BD492068884222
:103E200022D0BB491831206888421DD0B8493031B2
:103E30002068884218D0B64948312068884213D09B
:103E4000B3496031206888420ED0B149783120688A
:103E5000884209D0AE4990312068884204D0AC49EC
:103E6000A8312068884206D12068006820F001004F
:103E70002168086005E02068006820F001002168E2
:103E800008600DE000F00CFDA0EB0800052807D944
:103E900020206065032084F83500012036E76AE0C1
:103EA0002068006800F001000028EBD12068056858
:103EB00098480540D4E90201084321690843616933
:103EC0000843A1690843E1690843216A084305439F
:103ED000606A042803D1D4E90B01084305438E48E6
:103EE00000686FF30F00B0F1005F1DD360682928F0
:103EF00002D360682E2811D960683F2802D3606819
:103F000042280BD96068472802D36068482805D941
:103F100060684F2804D36068522801D8012000E06F
:103F2000002008B145F480152068056020684569C7
:103F300025F00705606A0543606A04280DD1A06A70
:103F40000543E06A48B12046FDF79AFD28B14020BC
:103F50006065012084F83500D8E620684561204678
:103F6000FDF76AFC064694F85C0000F01F013F2054
:103F70008840B0609EE069492068884222D0674945
:103F80001431206888421DD0644928312068884255
:103F900018D062493C312068884213D05F495031C3
:103FA000206888420ED05D4964312068884209D07B
:103FB0005A4978312068884204D058498C312068A9
:103FC000884201D1012000E00020E0B3534920687D
:103FD000884222D051491431206888421DD04F496F
:103FE00028312068884218D04C493C3120688842EA
:103FF00013D04A495031206888420ED04749643175
:104000002068884209D0454978312068884204D028
:1040100042498C312068884201D1012000E0002013
:1040200000B100BF022084F8350000BF002084F8F2
:10403000340000BF2068056839480540A068402862
:1040400002D1102106E02EE0A068802801D1C10134
:1040500000E00021E06841EAD001206941EAD00196
:10406000606941EAD001A06941EAD001E06941EA12
:10407000D001206A41EA10100543206805602749F5
:104080002068401A1421B0FBF1F08000E065204662
:10409000FDF7D2FB074694F85C0000F01F010120F9
:1040A0008840786006E040206065032084F8350091
:1040B00001202BE61549206888427FD0134918312A
:1040C000206888427AD0114930312068884275D002
:1040D0000E4948312068884270D00C496031206810
:1040E00088426BD0094978312068884266D00749F8
:1040F00090312068884261D00449A8312068884204
:104100005CD003492068884258D00BE01000024080
:10411000100402403F8010FE0010005C085402585A
:104120000F00FEFF3B4918312068884246D03949CC
:1041300030312068884241D0364948312068884271
:104140003CD0344960312068884237D031497831D9
:104150002068884232D02F499031206888422DD083
:104160002C49A8312068884228D02B4920688842F1
:1041700024D029491431206888421FD0264928318B
:10418000206888421AD024493C312068884215D0E2
:10419000214950312068884210D01F49643120687D
:1041A00088420BD01C4978312068884206D01A49D1
:1041B0008C312068884200E000E001D1012000E05D
:1041C000002000B32046FDF7ADFBA068802801D198
:1041D000002060602079216E0860D4E919104860E1
:1041E000606860B16068082809D82046FDF7FCFBCC
:1041F0000020E16E0860D4E91C10486003E0002054
:10420000E0662067606700206065012084F8350063
:1042100000207BE510040240085402582DE9F041CB
:1042200004460D4616461F464FF0000814B90120FB
:10423000BDE8F08100BF94F83400012801D10220CC
:10424000F6E7012084F8340000BF94F83500012817
:104250007ED1022084F8350000206065E4492068A2
:10426000884249D0E24918312068884244D0E04968
:104270003031206888423FD0DD494831206888428B
:104280003AD0DB4960312068884235D0D84978314E
:104290002068884230D0D6499031206888422BD09F
:1042A000D349A8312068884226D0D2492068884264
:1042B00022D0D0491831206888421DD0CD493031F4
:1042C0002068884218D0CB4948312068884213D0F2
:1042D000C8496031206888420ED0C64978312068CC
:1042E000884209D0C34990312068884204D0C1492E
:1042F000A8312068884206D12068006820F00100BB
:104300002168086005E02068006820F0010021684D
:1043100008603B46324629462046FDF709FCB44971
:10432000206888424BD0B24918312068884246D074
:10433000AF4930312068884241D0AD4948312068CA
:1043400088423CD0AA4960312068884237D000E0DA
:1043500042E1A74978312068884230D0A4499031A1
:10436000206888422BD0A249A8312068884226D0F4
:10437000A0492068884222D09E491831206888428E
:104380001DD09C4930312068884218D09949483165
:104390002068884213D097496031206888420ED047
:1043A000944978312068884209D092499031206838
:1043B000884204D08F49A8312068884201D1012069
:1043C00000E0002080B12068006820F01E0040F06E
:1043D000160021680860206CB0B12068006840F0C9
:1043E0000800216808600FE02068006820F00E00D7
:1043F00040F00A0021680860206C28B1206800683D
:1044000040F004002168086079492068884270D033
:1044100077491831206888426BD07549303120685F
:10442000884266D0724948312068884261D070491C
:104430006031206888425CD06D49783120688842BC
:1044400057D06B4990312068884252D06849A831D2
:10445000206888424DD067492068884249D0654924
:1044600018312068884244D062493031206888423F
:104470003FD060494831206888423AD05D49603178
:104480002068884235D05B4978312068884230D036
:1044900058499031206888422BD05649A83120686D
:1044A000884226D054492068884222D0524914318B
:1044B000206888421DD0504928312068884218D091
:1044C0004D493C312068884213D04B495031206817
:1044D00088420ED0484964312068884209D0464954
:1044E00078312068884204D043498C312068884262
:1044F00001D1012000E0002090B1206E006800F49E
:10450000803028B1206E006840F48070216E086011
:10451000E06E28B1E06E006840F48070E16E0860E3
:1045200033492068884249D031491831206888428F
:1045300044D02F493031206888423FD02C4948313F
:10454000206888423AD02A4960312068884235D0B4
:10455000274978312068884230D025499031206839
:1045600088422BD02249A8312068884226D0214990
:104570002068884222D01F491831206888421DD007
:104580001C4930312068884218D01A4948312068C7
:10459000884213D017496031206888420ED01549EF
:1045A00078312068884209D01249903120688842C9
:1045B00004D01049A8312068884206D120680068DC
:1045C00040F001002168086010E02068006840F0B9
:1045D00001002168086009E04FF40060606500BFD9
:1045E000002084F8340000BF4FF0010840461FE669
:1045F00010000240100402400854025870B50446EE
:1046000000F04EF906462546681C10B104480078B3
:10461000054400BF00F044F9801BA842FAD370BDE6
:104620001400002401280ED107490978012903D17B
:104630000021064A117006E003490978022902D1D7
:104640000321024A11707047020000240300002475
:1046500010B5044604480068204020B102480460B8
:104660002046FFF7DFFF10BD88000058F8B502466E
:104670000023744DDFE001279F400E6806EA07041F
:10468000002C7AD00E7906F00306012E04D00E79A4
:1046900006F00306022E13D190685F000326BE4089
:1046A000B0435F00CE68BE40304390605068012642
:1046B0009E40B0430E79C6F300169E4030435060D2
:1046C0000E7906F00306032E07D10E7906F00306D5
:1046D000032E0CD18E68012E09D0D0685F0003260E
:1046E000BE40B0435F008E68BE403043D0600E795C
:1046F00006F00306022E13D1DF0802F1200656F859
:1047000027005E07F70E0F26BE40B0435F07FF0E7F
:104710000E69BE403043DF0802F1200646F827004C
:1047200010685F000326BE40B0430E7906F0030612
:104730005F00BE40304310604E6806F44036002EE5
:1047400078D000BF404E366846F002063E4F3E60CD
:104750003E46366806F00206009600BF00BF3B4E9C
:104760009F0856F827009E07370F0F26BE40B0431C
:10477000374EB24202D100262EE05BE0354EB24207
:1047800001D1012628E0344EB24201D1022623E0B5
:10479000324EB24201D103261EE0314EB24201D167
:1047A000042619E02F4EB24201D1052614E02E4E08
:1047B000B24201D106260FE02C4EB24201D10726AB
:1047C0000AE02B4EB24201D1082605E0294EB24242
:1047D00001D1092600E00A269F073F0FBE40304363
:1047E0001A4E9F0846F827004FF0B0463068A043A5
:1047F0004E6806F4801606B120434FF0B046306094
:104800007068A0434E6806F4001606B120434FF0CE
:10481000B04670606868A0434E6806F4003606B182
:10482000204368602868A0434E6806F4803606B1CD
:10483000204328605B1C0E68DE40002E7FF41BAF17
:10484000F8BD000080000058F444025808040058E5
:10485000000002580004025800080258000C0258D8
:10486000001002580014025800180258001C025888
:104870000020025800240258024613690B400BB175
:10488000012000E0002070470AB1816101E00B04C3
:104890008361704701480068000C70470010005C9D
:1048A00001480068704700000C00002403480068BD
:1048B0000349097808440149086070470C00002446
:1048C0001400002410B5032000F00EF902F090F956
:1048D00010490968C1F303210F4A515C01F01F011F
:1048E00020FA01F40B48006800F00F001146085C44
:1048F00000F01F0024FA00F008490860084804602E
:104900000F2000F00FF808B1012010BD00F088F86A
:104910000020FAE71844025800AC00081C000024EC
:104920001800002470B504461148007808B9012029
:1049300070BD0F4800784FF47A71B1FBF0F00D496B
:104940000968B1FBF0F5284602F094FE08B1012099
:10495000EEE7102C07D200222146501E00F086F808
:104960000548046001E00120E2E70020E0E70000E4
:104970001400002418000024100000244178154A77
:10498000116014490831096821F00101114A083207
:104990001160121F41681160017B0907C27A41EA68
:1049A0000261827A41EAC241427B41EA8241827BD2
:1049B00041EA4241C27B41EA0241427A41EA022194
:1049C000027A41EA420102781143024A0832116038
:1049D0007047000098ED00E0BFF35F8F0548006866
:1049E00020F48030034908600020024970310860DB
:1049F0007047000024ED00E040F00101074A11601B
:104A000006497039096841F48031044A703A1160EE
:104A1000BFF34F8FBFF36F8F7047000094ED00E03E
:104A200008B500BF0648006840F00200044908606D
:104A30000846006800F00200009000BF00BF08BDFB
:104A4000F44402580146084600280DDB00BF00BFB1
:104A500000F01F0301229A4043099B0003F1E02369
:104A6000C3F8002100BF00BF00BF70472DE9F05F11
:104A700080460D46164605F0B5F8074639462A46E3
:104A8000334601F00700C0F1070ABAF1040F02D95A
:104A90004FF0040A01E0C0F1070AD14600F1040A10
:104AA000BAF1070F02D24FF0000A01E0A0F1030AA9
:104AB000D4464FF0010A0AFA09FAAAF1010A0AEAF1
:104AC000020A0AFA0CFA4FF0010B0BFA0CFBABF1DD
:104AD000010B0BEA030B4AEA0B042146404605F0A2
:104AE00089F8BDE8F09F000000BF00F00702064B08
:104AF00019684FF6FF031940044B0B4343EA0221A8
:104B0000014B196000BF70470CED00E00000FA0592
:104B100070B5044615480068C0F3800048B91348D2
:104B2000006800F00700A04201D0012070BD002005
:104B3000FCE70E48006820F0070020430B4908609E
:104B4000FFF7AEFE054607E0FFF7AAFE401BB0F5F3
:104B50007A7F01D90120E9E7044808380068C0F3EA
:104B600040300028F0D00020E0E700000C48025858
:104B700010B501F0F3FF05490968C1F30211044AB9
:104B8000515C01F01F01C84010BD000020440258D4
:104B900000AC000870B50146844D2D6805F0030394
:104BA000824D2D68C5F30510804D2D1D2D6805F033
:104BB00001047E4D0C352D68C5F3CC0515FB04F5BD
:104BC00001EE105AB8EE411AF0EE410A00286FD0FB
:104BD00023B1012B4ED0022B6BD16BE0734D283DDE
:104BE0002D68C5F340153DB3704D283D2D68C5F3C4
:104BF000C1066F4D25FA06F201EE102AF8EE411AB1
:104C000001EE100AB8EE411A81EE812A9FED691A71
:104C1000C0EE811A654D08352D68C5F3080501EE13
:104C2000105AB8EE411A31EE811AF7EE001A31EE41
:104C3000211A22EE010A1CE001EE100AB8EE411A18
:104C4000DFED5D1A81EE812A9FED5A1AC0EE811ABE
:104C5000564D08352D68C5F3080501EE105AB8EE1B
:104C6000411A31EE811AF7EE001A31EE211A22EEC6
:104C7000010A5BE001EE100AB8EE411ADFED4F1AAF
:104C800081EE812A9FED4B1AC0EE811A474D0835FF
:104C90002D68C5F3080501EE105AB8EE411A31EE41
:104CA000811AF7EE001A31EE211A22EE010A3DE0D8
:104CB00077E01DE001EE100AB8EE411A9FED402AA0
:104CC000C2EE011A9FED3B1A80EE812A374D08355E
:104CD0002D68C5F3080501EE105AB8EE411A32EE00
:104CE000011AB7EE002A31EE021A21EE810A1DE008
:104CF00001EE100AB8EE411ADFED2F1A81EE812A7B
:104D00009FED2C1AC0EE811A284D08352D68C5F389
:104D1000080501EE105AB8EE411A31EE811AF7EE8D
:104D2000001A31EE211A22EE010A00BF00BF1F4D0A
:104D300008352D68C5F3462501EE105AB8EE411A24
:104D4000F7EE001A31EE211AC0EE011ABCEEE11A9C
:104D500081ED001A154D08352D68C5F3064501EEA5
:104D6000105AB8EE411AF7EE001A31EE211AC0EED1
:104D7000011ABCEEE11A81ED011A0C4D08352D68BF
:104D8000C5F3066501EE105AB8EE411AF7EE001AA7
:104D900031EE211AC0EE011ABCEEE11A81ED021AC1
:104DA00003E000250D604D608D6070BD2844025801
:104DB0000090D003000000460024744C0024744A84
:104DC00020BCBE4B70B50146844D2D6805F0030331
:104DD000824D2D68C5F30530804D2D1D2D68C5F31E
:104DE00000147E4D14352D68C5F3CC0515FB04F574
:104DF00001EE105AB8EE411AF0EE410A00286FD0C9
:104E000023B1012B4ED0022B6BD16BE0734D283DAB
:104E10002D68C5F340153DB3704D283D2D68C5F391
:104E2000C1066F4D25FA06F201EE102AF8EE411A7E
:104E300001EE100AB8EE411A81EE812A9FED691A3F
:104E4000C0EE811A654D10352D68C5F3080501EED9
:104E5000105AB8EE411A31EE811AF7EE001A31EE0F
:104E6000211A22EE010A1CE001EE100AB8EE411AE6
:104E7000DFED5D1A81EE812A9FED5A1AC0EE811A8C
:104E8000564D10352D68C5F3080501EE105AB8EEE1
:104E9000411A31EE811AF7EE001A31EE211A22EE94
:104EA000010A5BE001EE100AB8EE411ADFED4F1A7D
:104EB00081EE812A9FED4B1AC0EE811A474D1035C5
:104EC0002D68C5F3080501EE105AB8EE411A31EE0F
:104ED000811AF7EE001A31EE211A22EE010A3DE0A6
:104EE00077E01DE001EE100AB8EE411A9FED402A6E
:104EF000C2EE011A9FED3B1A80EE812A374D103524
:104F00002D68C5F3080501EE105AB8EE411A32EECD
:104F1000011AB7EE002A31EE021A21EE810A1DE0D5
:104F200001EE100AB8EE411ADFED301A81EE812A47
:104F30009FED2C1AC0EE811A284D10352D68C5F34F
:104F4000080501EE105AB8EE411A31EE811AF7EE5B
:104F5000001A31EE211A22EE010A00BF00BF1F4DD8
:104F600010352D68C5F3462501EE105AB8EE411AEA
:104F7000F7EE001A31EE211AC0EE011ABCEEE11A6A
:104F800081ED001A154D10352D68C5F3064501EE6B
:104F9000105AB8EE411AF7EE001A31EE211AC0EE9F
:104FA000011ABCEEE11A81ED011A0C4D10352D6885
:104FB000C5F3066501EE105AB8EE411AF7EE001A75
:104FC00031EE211AC0EE011ABCEEE11A81ED021A8F
:104FD00003E000250D604D608D6070BD28440258CF
:104FE0000090D003000000460024744C0024744A52
:104FF00020BCBE4B70B50146844D2D6805F00303FF
:10500000824D2D68C5F30550804D2D1D2D68C5F3CB
:1050100000247E4D1C352D68C5F3CC0515FB04F529
:1050200001EE105AB8EE411AF0EE410A00286FD096
:1050300023B1012B4ED0022B6BD16BE0734D283D79
:105040002D68C5F340153DB3704D283D2D68C5F35F
:10505000C1066F4D25FA06F201EE102AF8EE411A4C
:1050600001EE100AB8EE411A81EE812A9FED691A0D
:10507000C0EE811A654D18352D68C5F3080501EE9F
:10508000105AB8EE411A31EE811AF7EE001A31EEDD
:10509000211A22EE010A1CE001EE100AB8EE411AB4
:1050A000DFED5D1A81EE812A9FED5A1AC0EE811A5A
:1050B000564D18352D68C5F3080501EE105AB8EEA7
:1050C000411A31EE811AF7EE001A31EE211A22EE62
:1050D000010A5BE001EE100AB8EE411ADFED4F1A4B
:1050E00081EE812A9FED4B1AC0EE811A474D18358B
:1050F0002D68C5F3080501EE105AB8EE411A31EEDD
:10510000811AF7EE001A31EE211A22EE010A3DE073
:1051100077E01DE001EE100AB8EE411A9FED402A3B
:10512000C2EE011A9FED3B1A80EE812A374D1835E9
:105130002D68C5F3080501EE105AB8EE411A32EE9B
:10514000011AB7EE002A31EE021A21EE810A1DE0A3
:1051500001EE100AB8EE411ADFED301A81EE812A15
:105160009FED2C1AC0EE811A284D18352D68C5F315
:10517000080501EE105AB8EE411A31EE811AF7EE29
:10518000001A31EE211A22EE010A00BF00BF1F4DA6
:1051900018352D68C5F3462501EE105AB8EE411AB0
:1051A000F7EE001A31EE211AC0EE011ABCEEE11A38
:1051B00081ED001A154D18352D68C5F3064501EE31
:1051C000105AB8EE411AF7EE001A31EE211AC0EE6D
:1051D000011ABCEEE11A81ED011A0C4D18352D684B
:1051E000C5F3066501EE105AB8EE411AF7EE001A43
:1051F00031EE211AC0EE011ABCEEE11A81ED021A5D
:1052000003E000250D604D608D6070BD284402589C
:105210000090D003000000460024744C0024744A1F
:1052200020BCBE4B2DE9F04389B006460F464FF433
:10523000807186EA0100384370D1F748006800F0B9
:105240000709B9F1050F65D2DFE809F00312216201
:105250003000F1485038006800F00070B0F1007F75
:1052600004D106A8FFF796FC079C00E0002453E059
:10527000E9485038006800F00060B0F1006F04D1D8
:1052800003A8FFF79FFD039C00E0002444E0E248F0
:105290005038006800F00050B0F1005F04D168465B
:1052A000FFF7A8FE009C00E0002435E0DA48001F6C
:1052B000006800F04055D8485038006800F00400FD
:1052C000042809D145B9D44850380068C0F3C10159
:1052D000D24820FA01F41AE0CF485038006800F4B0
:1052E0008070B0F5807F04D1B5F1805F01D1CC4CE6
:1052F0000DE0C9485038006800F40030B0F5003FB8
:1053000004D1B5F1005F01D1C64C00E0002403E0F8
:10531000C54C01E0002400BFD4E3FFE74FF4007167
:1053200086EA010038437AD1BB48006800F4E0798E
:10533000B9F1800F2CD006DCB9F1000F0AD0B9F119
:10534000400F69D115E0B9F1C00F63D0B9F5807F86
:1053500062D12CE0B0485038006800F00070B0F125
:10536000007F04D106A8FFF715FC079C00E000248D
:1053700054E0A9485038006800F00060B0F1006FB8
:1053800004D103A8FFF71EFD039C00E0002445E0C4
:10539000A1485038006800F00050B0F1005F04D11F
:1053A0006846FFF727FE009C00E0002436E09A489C
:1053B000001F006800F0405597485038006800F022
:1053C0000400042809D145B9934850380068C0F357
:1053D000C101924820FA01F41BE08F485038006860
:1053E00000F48070B0F5807F04D1B5F1805F01D109
:1053F0008B4C0EE088485038006800F40030B0F55F
:10540000003F05D1B5F1005F02D1864C01E006E016
:10541000002403E0844C01E0002400BF52E34FF479
:10542000806186EA010038437BD17B480830006800
:1054300000F46009B9F5800F2CD006DCB9F1000F3B
:105440000AD0B9F5001F69D115E0B9F5C00F63D0D6
:10545000B9F5000F62D12CE06F485038006800F0B9
:105460000070B0F1007F04D106A8FFF793FB079C02
:1054700000E0002454E068485038006800F0006004
:10548000B0F1006F04D103A8FFF79CFC039C00E07F
:10549000002445E060485038006800F00050B0F14A
:1054A000005F04D16846FFF7A5FD009C00E00024E2
:1054B00036E05948001F006800F040555648503803
:1054C000006800F00400042809D145B9524850385A
:1054D0000068C0F3C101514820FA01F41BE04E48B6
:1054E0005038006800F48070B0F5807F04D1B5F1C9
:1054F000805F01D14A4C0EE047485038006800F404
:105500000030B0F5003F05D1B5F1005F02D1454C48
:1055100001E006E0002403E0434C01E0002400BF6A
:10552000D0E24FF4006186EA0100384373D13A4873
:105530000830006800F0E069B9F1007F2CD006DC8B
:10554000B9F1000F0AD0B9F1807F75D115E0B9F13A
:10555000407F6FD0B9F1806F6ED12CE02E4850386B
:10556000006800F00070B0F1007F04D106A8FFF7DA
:1055700011FB079C00E0002460E0274850380068D9
:1055800000F00060B0F1006F04D103A8FFF71AFC2F
:10559000039C00E0002451E01F485038006800F0F0
:1055A0000050B0F1005F04D16846FFF723FD009C76
:1055B00000E0002442E01848001F006800F0405559
:1055C00015485038006800F00400042809D145B996
:1055D000114850380068C0F3C101104820FA01F4A6
:1055E00027E00D485038006800F48070B0F5807FE7
:1055F00004D1B5F1805F01D1094C1AE0064850385A
:10560000006800F40030B0F5003F11D1B5F1005F43
:105610000ED1044C0DE012E0504402580090D0032B
:1056200000093D0040787D010080BB0004E001E0FE
:10563000002403E0F74C01E0002400BF42E24FF4F5
:10564000805186EA010038437AD1F348006800F4BB
:10565000E048B8F5005F2CD006DCB8F1000F0AD0A6
:10566000B8F5805F69D115E0B8F5405F63D0B8F553
:10567000804F62D12CE0E8485038006800F000709C
:10568000B0F1007F04D106A8FFF784FA079C00E080
:10569000002454E0E0485038006800F00060B0F1A9
:1056A000006F04D103A8FFF78DFB039C00E00024EA
:1056B00045E0D9485038006800F00050B0F1005F74
:1056C00004D16846FFF796FC009C00E0002436E019
:1056D000D148001F006800F04055CF48503800689E
:1056E00000F00400042809D145B9CB4850380068BF
:1056F000C0F3C101C94820FA01F41BE0C648503884
:10570000006800F48070B0F5807F04D1B5F1805F4F
:1057100001D1C34C0EE0C0485038006800F400309E
:10572000B0F5003F05D1B5F1005F02D1BD4C01E0FD
:1057300006E0002403E0B74C01E0002400BFC1E113
:105740004FF4005186EA0100384367D1B24800683F
:1057500000F4E028B8F5403F33D009DCB8F1000F81
:105760000DD0B8F5803F0ED0B8F5003F53D119E009
:10577000B8F5802F37D0B8F5A02F4CD13FE001F01D
:1057800013FA044649E0A4485038006800F000606D
:10579000B0F1006F04D103A8FFF714FB049C00E0F4
:1057A00000243AE09C485038006800F00050B0F106
:1057B000005F04D16846FFF71DFC019C00E0002457
:1057C0002BE095485038006800F00400042808D108
:1057D000914850380068C0F3C101904820FA01F4A4
:1057E00000E0002419E08C485038006800F4807014
:1057F000B0F5807F01D18A4C00E000240DE086489E
:105800005038006800F40030B0F5003F01D1854CFD
:1058100000E0002401E0002400BF53E14FF4002128
:1058200086EA0100384361D17B480830006800F403
:105830004038B8F1000F06D0B8F5803F12D0B8F567
:10584000003F50D11DE074485038006800F00060FF
:10585000B0F1006F04D103A8FFF7B4FA039C00E095
:10586000002442E06C485038006800F00050B0F16D
:10587000005F04D16846FFF7BDFB029C00E00024F6
:1058800033E06548001F006800F04055624850381A
:10589000006800F00400042809D145B95E4850387A
:1058A0000068C0F3C1015D4820FA01F41AE05A48CB
:1058B0005038006800F48070B0F5807F04D1B5F1F5
:1058C000805F01D1564C0DE053485038006800F419
:1058D0000030B0F5003F04D1B5F1005F01D1514C6B
:1058E00000E0002401E0002400BFEBE04FF4803131
:1058F00086EA010038432CD14748001F006800F4B5
:105900008038B8F1000F03D0B8F5803F1ED10EE00B
:1059100041485038006800F00070B0F1007F04D1B9
:1059200006A8FFF737F9079C00E0002410E03A488A
:105930005038006800F00060B0F1006F04D103A897
:10594000FFF740FA059C00E0002401E0002400BFBE
:10595000B8E04FF4804186EA0100384372D12E4806
:105960000830006800F0E048B8F1405F33D009DC4F
:10597000B8F1000F0DD0B8F1805F0ED0B8F1005F24
:105980005DD119E0B8F1804F37D0B8F1A04F56D1B2
:105990004AE0FFF7EDF8044653E01F48503800682E
:1059A00000F00060B0F1006F04D103A8FFF70AFA1D
:1059B000049C00E0002444E017485038006800F0E0
:1059C0000050B0F1005F04D16846FFF713FB019C63
:1059D00000E0002435E010485038006800F0040072
:1059E000042808D10C4850380068C0F3C1010B48A6
:1059F00020FA01F400E0002423E007485038006852
:105A000000F48070B0F5807F01D1054C00E00024E7
:105A100017E017E00080BB00504402580090D0030C
:105A200000093D0040787D012848006800F40030FE
:105A3000B0F5003F01D1264C00E0002401E0002435
:105A400000BF3FE04FF4004186EA0100384338D1FF
:105A50001E485030006800F04058B8F1000F06D0E2
:105A6000B8F1805F0ED0B8F1005F27D118E0174879
:105A7000006800F40030B0F5003F01D1144C00E0A4
:105A800000241DE01148006800F00070B0F1007FB4
:105A900004D106A8FFF77EF8079C00E000240FE081
:105AA0000A48006800F00060B0F1006F04D103A85C
:105AB000FFF788F9049C00E0002401E0002400BF07
:105AC00000E00024204609B0BDE8F08300440258FD
:105AD00040787D012DE9F04104460025A8464FF0AD
